{
  "_format": "hh3-artifact-1",
  "contractName": "LiquidityPool",
  "sourceName": "contracts/LiquidityPool.sol",
  "abi": [
    {
      "inputs": [],
      "stateMutability": "nonpayable",
      "type": "constructor"
    },
    {
      "inputs": [
        {
          "internalType": "address",
          "name": "owner",
          "type": "address"
        }
      ],
      "name": "OwnableInvalidOwner",
      "type": "error"
    },
    {
      "inputs": [
        {
          "internalType": "address",
          "name": "account",
          "type": "address"
        }
      ],
      "name": "OwnableUnauthorizedAccount",
      "type": "error"
    },
    {
      "anonymous": false,
      "inputs": [
        {
          "indexed": true,
          "internalType": "address",
          "name": "user",
          "type": "address"
        },
        {
          "indexed": false,
          "internalType": "uint256",
          "name": "amount",
          "type": "uint256"
        }
      ],
      "name": "Deposited",
      "type": "event"
    },
    {
      "anonymous": false,
      "inputs": [
        {
          "indexed": true,
          "internalType": "address",
          "name": "previousOwner",
          "type": "address"
        },
        {
          "indexed": true,
          "internalType": "address",
          "name": "newOwner",
          "type": "address"
        }
      ],
      "name": "OwnershipTransferred",
      "type": "event"
    },
    {
      "anonymous": false,
      "inputs": [
        {
          "indexed": true,
          "internalType": "address",
          "name": "to",
          "type": "address"
        },
        {
          "indexed": false,
          "internalType": "uint256",
          "name": "amount",
          "type": "uint256"
        }
      ],
      "name": "PayoutExecuted",
      "type": "event"
    },
    {
      "anonymous": false,
      "inputs": [
        {
          "indexed": true,
          "internalType": "address",
          "name": "user",
          "type": "address"
        },
        {
          "indexed": false,
          "internalType": "uint256",
          "name": "amount",
          "type": "uint256"
        }
      ],
      "name": "Withdrawn",
      "type": "event"
    },
    {
      "inputs": [],
      "name": "deposit",
      "outputs": [],
      "stateMutability": "payable",
      "type": "function"
    },
    {
      "inputs": [
        {
          "internalType": "address",
          "name": "user",
          "type": "address"
        }
      ],
      "name": "getBalance",
      "outputs": [
        {
          "internalType": "uint256",
          "name": "",
          "type": "uint256"
        }
      ],
      "stateMutability": "view",
      "type": "function"
    },
    {
      "inputs": [],
      "name": "owner",
      "outputs": [
        {
          "internalType": "address",
          "name": "",
          "type": "address"
        }
      ],
      "stateMutability": "view",
      "type": "function"
    },
    {
      "inputs": [
        {
          "internalType": "address",
          "name": "to",
          "type": "address"
        },
        {
          "internalType": "uint256",
          "name": "amount",
          "type": "uint256"
        }
      ],
      "name": "payout",
      "outputs": [],
      "stateMutability": "nonpayable",
      "type": "function"
    },
    {
      "inputs": [],
      "name": "predictionMarket",
      "outputs": [
        {
          "internalType": "address",
          "name": "",
          "type": "address"
        }
      ],
      "stateMutability": "view",
      "type": "function"
    },
    {
      "inputs": [],
      "name": "renounceOwnership",
      "outputs": [],
      "stateMutability": "nonpayable",
      "type": "function"
    },
    {
      "inputs": [
        {
          "internalType": "address",
          "name": "_pm",
          "type": "address"
        }
      ],
      "name": "setPredictionMarket",
      "outputs": [],
      "stateMutability": "nonpayable",
      "type": "function"
    },
    {
      "inputs": [],
      "name": "totalLiquidity",
      "outputs": [
        {
          "internalType": "uint256",
          "name": "",
          "type": "uint256"
        }
      ],
      "stateMutability": "view",
      "type": "function"
    },
    {
      "inputs": [
        {
          "internalType": "address",
          "name": "newOwner",
          "type": "address"
        }
      ],
      "name": "transferOwnership",
      "outputs": [],
      "stateMutability": "nonpayable",
      "type": "function"
    },
    {
      "inputs": [
        {
          "internalType": "uint256",
          "name": "amount",
          "type": "uint256"
        }
      ],
      "name": "withdraw",
      "outputs": [],
      "stateMutability": "nonpayable",
      "type": "function"
    },
    {
      "stateMutability": "payable",
      "type": "receive"
    }
  ],
  "bytecode": "0x608060405234801561000f575f5ffd5b50335f73ffffffffffffffffffffffffffffffffffffffff168173ffffffffffffffffffffffffffffffffffffffff1603610081575f6040517f1e4fbdf70000000000000000000000000000000000000000000000000000000081526004016100789190610196565b60405180910390fd5b6100908161009660201b60201c565b506101af565b5f5f5f9054906101000a900473ffffffffffffffffffffffffffffffffffffffff169050815f5f6101000a81548173ffffffffffffffffffffffffffffffffffffffff021916908373ffffffffffffffffffffffffffffffffffffffff1602179055508173ffffffffffffffffffffffffffffffffffffffff168173ffffffffffffffffffffffffffffffffffffffff167f8be0079c531659141344cd1fd0a4f28419497f9722a3daafe3b4186f6b6457e060405160405180910390a35050565b5f73ffffffffffffffffffffffffffffffffffffffff82169050919050565b5f61018082610157565b9050919050565b61019081610176565b82525050565b5f6020820190506101a95f830184610187565b92915050565b610f52806101bc5f395ff3fe608060405260043610610094575f3560e01c80638da5cb5b116100585780638da5cb5b14610157578063d0e30db014610181578063def114b61461018b578063f2fde38b146101b5578063f8b2cb4f146101dd5761009b565b806303b88ba21461009f578063117de2fd146100c757806315770f92146100ef5780632e1a7d4d14610119578063715018a6146101415761009b565b3661009b57005b5f5ffd5b3480156100aa575f5ffd5b506100c560048036038101906100c09190610a49565b610219565b005b3480156100d2575f5ffd5b506100ed60048036038101906100e89190610aa7565b610264565b005b3480156100fa575f5ffd5b50610103610449565b6040516101109190610af4565b60405180910390f35b348015610124575f5ffd5b5061013f600480360381019061013a9190610b0d565b61044f565b005b34801561014c575f5ffd5b50610155610676565b005b348015610162575f5ffd5b5061016b610689565b6040516101789190610b47565b60405180910390f35b6101896106b0565b005b348015610196575f5ffd5b5061019f6107ad565b6040516101ac9190610b47565b60405180910390f35b3480156101c0575f5ffd5b506101db60048036038101906101d69190610a49565b6107d2565b005b3480156101e8575f5ffd5b5061020360048036038101906101fe9190610a49565b610856565b6040516102109190610af4565b60405180910390f35b61022161089c565b8060035f6101000a81548173ffffffffffffffffffffffffffffffffffffffff021916908373ffffffffffffffffffffffffffffffffffffffff16021790555050565b60035f9054906101000a900473ffffffffffffffffffffffffffffffffffffffff1673ffffffffffffffffffffffffffffffffffffffff163373ffffffffffffffffffffffffffffffffffffffff16146102f3576040517f08c379a00000000000000000000000000000000000000000000000000000000081526004016102ea90610bba565b60405180910390fd5b80471015610336576040517f08c379a000000000000000000000000000000000000000000000000000000000815260040161032d90610c22565b60405180910390fd5b8060025f8282546103479190610c6d565b925050819055505f8273ffffffffffffffffffffffffffffffffffffffff168260405161037390610ccd565b5f6040518083038185875af1925050503d805f81146103ad576040519150601f19603f3d011682016040523d82523d5f602084013e6103b2565b606091505b50509050806103f6576040517f08c379a00000000000000000000000000000000000000000000000000000000081526004016103ed90610d2b565b60405180910390fd5b8273ffffffffffffffffffffffffffffffffffffffff167f6d7b5ea65a17fdff1d0c494389ca865c65f34300cb05078e09421e8a397e42d18360405161043c9190610af4565b60405180910390a2505050565b60025481565b5f8111610491576040517f08c379a000000000000000000000000000000000000000000000000000000000815260040161048890610d93565b60405180910390fd5b8060015f3373ffffffffffffffffffffffffffffffffffffffff1673ffffffffffffffffffffffffffffffffffffffff1681526020019081526020015f20541015610511576040517f08c379a000000000000000000000000000000000000000000000000000000000815260040161050890610dfb565b60405180910390fd5b8060015f3373ffffffffffffffffffffffffffffffffffffffff1673ffffffffffffffffffffffffffffffffffffffff1681526020019081526020015f205f82825461055d9190610c6d565b925050819055508060025f8282546105759190610c6d565b925050819055505f3373ffffffffffffffffffffffffffffffffffffffff16826040516105a190610ccd565b5f6040518083038185875af1925050503d805f81146105db576040519150601f19603f3d011682016040523d82523d5f602084013e6105e0565b606091505b5050905080610624576040517f08c379a000000000000000000000000000000000000000000000000000000000815260040161061b90610e63565b60405180910390fd5b3373ffffffffffffffffffffffffffffffffffffffff167f7084f5476618d8e60b11ef0d7d3f06914655adb8793e28ff7f018d4c76d505d58360405161066a9190610af4565b60405180910390a25050565b61067e61089c565b6106875f610923565b565b5f5f5f9054906101000a900473ffffffffffffffffffffffffffffffffffffffff16905090565b5f34116106f2576040517f08c379a00000000000000000000000000000000000000000000000000000000081526004016106e990610ecb565b60405180910390fd5b3460015f3373ffffffffffffffffffffffffffffffffffffffff1673ffffffffffffffffffffffffffffffffffffffff1681526020019081526020015f205f82825461073e9190610ee9565b925050819055503460025f8282546107569190610ee9565b925050819055503373ffffffffffffffffffffffffffffffffffffffff167f2da466a7b24304f47e87fa2e1e5a81b9831ce54fec19055ce277ca2f39ba42c4346040516107a39190610af4565b60405180910390a2565b60035f9054906101000a900473ffffffffffffffffffffffffffffffffffffffff1681565b6107da61089c565b5f73ffffffffffffffffffffffffffffffffffffffff168173ffffffffffffffffffffffffffffffffffffffff160361084a575f6040517f1e4fbdf70000000000000000000000000000000000000000000000000000000081526004016108419190610b47565b60405180910390fd5b61085381610923565b50565b5f60015f8373ffffffffffffffffffffffffffffffffffffffff1673ffffffffffffffffffffffffffffffffffffffff1681526020019081526020015f20549050919050565b6108a46109e4565b73ffffffffffffffffffffffffffffffffffffffff166108c2610689565b73ffffffffffffffffffffffffffffffffffffffff1614610921576108e56109e4565b6040517f118cdaa70000000000000000000000000000000000000000000000000000000081526004016109189190610b47565b60405180910390fd5b565b5f5f5f9054906101000a900473ffffffffffffffffffffffffffffffffffffffff169050815f5f6101000a81548173ffffffffffffffffffffffffffffffffffffffff021916908373ffffffffffffffffffffffffffffffffffffffff1602179055508173ffffffffffffffffffffffffffffffffffffffff168173ffffffffffffffffffffffffffffffffffffffff167f8be0079c531659141344cd1fd0a4f28419497f9722a3daafe3b4186f6b6457e060405160405180910390a35050565b5f33905090565b5f5ffd5b5f73ffffffffffffffffffffffffffffffffffffffff82169050919050565b5f610a18826109ef565b9050919050565b610a2881610a0e565b8114610a32575f5ffd5b50565b5f81359050610a4381610a1f565b92915050565b5f60208284031215610a5e57610a5d6109eb565b5b5f610a6b84828501610a35565b91505092915050565b5f819050919050565b610a8681610a74565b8114610a90575f5ffd5b50565b5f81359050610aa181610a7d565b92915050565b5f5f60408385031215610abd57610abc6109eb565b5b5f610aca85828601610a35565b9250506020610adb85828601610a93565b9150509250929050565b610aee81610a74565b82525050565b5f602082019050610b075f830184610ae5565b92915050565b5f60208284031215610b2257610b216109eb565b5b5f610b2f84828501610a93565b91505092915050565b610b4181610a0e565b82525050565b5f602082019050610b5a5f830184610b38565b92915050565b5f82825260208201905092915050565b7f4f6e6c792050726564696374696f6e4d61726b657400000000000000000000005f82015250565b5f610ba4601583610b60565b9150610baf82610b70565b602082019050919050565b5f6020820190508181035f830152610bd181610b98565b9050919050565b7f496e73756666696369656e74206c6971756964697479000000000000000000005f82015250565b5f610c0c601683610b60565b9150610c1782610bd8565b602082019050919050565b5f6020820190508181035f830152610c3981610c00565b9050919050565b7f4e487b71000000000000000000000000000000000000000000000000000000005f52601160045260245ffd5b5f610c7782610a74565b9150610c8283610a74565b9250828203905081811115610c9a57610c99610c40565b5b92915050565b5f81905092915050565b50565b5f610cb85f83610ca0565b9150610cc382610caa565b5f82019050919050565b5f610cd782610cad565b9150819050919050565b7f5061796f7574206661696c6564000000000000000000000000000000000000005f82015250565b5f610d15600d83610b60565b9150610d2082610ce1565b602082019050919050565b5f6020820190508181035f830152610d4281610d09565b9050919050565b7f5a65726f207769746864726177000000000000000000000000000000000000005f82015250565b5f610d7d600d83610b60565b9150610d8882610d49565b602082019050919050565b5f6020820190508181035f830152610daa81610d71565b9050919050565b7f4e6f7420656e6f756768206465706f73697465640000000000000000000000005f82015250565b5f610de5601483610b60565b9150610df082610db1565b602082019050919050565b5f6020820190508181035f830152610e1281610dd9565b9050919050565b7f5769746864726177206661696c656400000000000000000000000000000000005f82015250565b5f610e4d600f83610b60565b9150610e5882610e19565b602082019050919050565b5f6020820190508181035f830152610e7a81610e41565b9050919050565b7f5a65726f206465706f73697400000000000000000000000000000000000000005f82015250565b5f610eb5600c83610b60565b9150610ec082610e81565b602082019050919050565b5f6020820190508181035f830152610ee281610ea9565b9050919050565b5f610ef382610a74565b9150610efe83610a74565b9250828201905080821115610f1657610f15610c40565b5b9291505056fea2646970667358221220f709dc4118965d7e2edbddb4efef5128d41cf0b6301c03b9c963f47d5178b83764736f6c634300081c0033",
  "linkReferences": {},
  "deployedLinkReferences": {},
  "immutableReferences": {},
  "inputSourceName": "project/contracts/LiquidityPool.sol",
  "buildInfoId": "solc-0_8_28-2cff6b0f243ae490e217e7409abbccb649e69380"
}