{
  "_format": "hh3-artifact-1",
  "contractName": "LiquidityPool",
  "sourceName": "contracts/LiquidityPool.sol",
  "abi": [
    {
      "inputs": [],
      "stateMutability": "nonpayable",
      "type": "constructor"
    },
    {
      "inputs": [
        {
          "internalType": "address",
          "name": "owner",
          "type": "address"
        }
      ],
      "name": "OwnableInvalidOwner",
      "type": "error"
    },
    {
      "inputs": [
        {
          "internalType": "address",
          "name": "account",
          "type": "address"
        }
      ],
      "name": "OwnableUnauthorizedAccount",
      "type": "error"
    },
    {
      "anonymous": false,
      "inputs": [
        {
          "indexed": true,
          "internalType": "address",
          "name": "user",
          "type": "address"
        },
        {
          "indexed": false,
          "internalType": "uint256",
          "name": "amount",
          "type": "uint256"
        }
      ],
      "name": "Deposited",
      "type": "event"
    },
    {
      "anonymous": false,
      "inputs": [
        {
          "indexed": true,
          "internalType": "address",
          "name": "previousOwner",
          "type": "address"
        },
        {
          "indexed": true,
          "internalType": "address",
          "name": "newOwner",
          "type": "address"
        }
      ],
      "name": "OwnershipTransferred",
      "type": "event"
    },
    {
      "anonymous": false,
      "inputs": [
        {
          "indexed": true,
          "internalType": "address",
          "name": "user",
          "type": "address"
        },
        {
          "indexed": false,
          "internalType": "uint256",
          "name": "amount",
          "type": "uint256"
        }
      ],
      "name": "Withdrawn",
      "type": "event"
    },
    {
      "inputs": [
        {
          "internalType": "address",
          "name": "",
          "type": "address"
        }
      ],
      "name": "balances",
      "outputs": [
        {
          "internalType": "uint256",
          "name": "",
          "type": "uint256"
        }
      ],
      "stateMutability": "view",
      "type": "function"
    },
    {
      "inputs": [],
      "name": "deposit",
      "outputs": [],
      "stateMutability": "payable",
      "type": "function"
    },
    {
      "inputs": [
        {
          "internalType": "uint256",
          "name": "x",
          "type": "uint256"
        }
      ],
      "name": "double",
      "outputs": [
        {
          "internalType": "uint256",
          "name": "",
          "type": "uint256"
        }
      ],
      "stateMutability": "pure",
      "type": "function"
    },
    {
      "inputs": [
        {
          "internalType": "address",
          "name": "user",
          "type": "address"
        }
      ],
      "name": "getBalance",
      "outputs": [
        {
          "internalType": "uint256",
          "name": "",
          "type": "uint256"
        }
      ],
      "stateMutability": "view",
      "type": "function"
    },
    {
      "inputs": [],
      "name": "owner",
      "outputs": [
        {
          "internalType": "address",
          "name": "",
          "type": "address"
        }
      ],
      "stateMutability": "view",
      "type": "function"
    },
    {
      "inputs": [],
      "name": "renounceOwnership",
      "outputs": [],
      "stateMutability": "nonpayable",
      "type": "function"
    },
    {
      "inputs": [],
      "name": "totalLiquidity",
      "outputs": [
        {
          "internalType": "uint256",
          "name": "",
          "type": "uint256"
        }
      ],
      "stateMutability": "view",
      "type": "function"
    },
    {
      "inputs": [
        {
          "internalType": "address",
          "name": "to",
          "type": "address"
        },
        {
          "internalType": "uint256",
          "name": "amount",
          "type": "uint256"
        }
      ],
      "name": "transfer",
      "outputs": [],
      "stateMutability": "nonpayable",
      "type": "function"
    },
    {
      "inputs": [
        {
          "internalType": "address",
          "name": "newOwner",
          "type": "address"
        }
      ],
      "name": "transferOwnership",
      "outputs": [],
      "stateMutability": "nonpayable",
      "type": "function"
    },
    {
      "inputs": [
        {
          "internalType": "uint256",
          "name": "amount",
          "type": "uint256"
        }
      ],
      "name": "withdraw",
      "outputs": [],
      "stateMutability": "nonpayable",
      "type": "function"
    }
  ],
  "bytecode": "0x608060405234801561000f575f5ffd5b50335f73ffffffffffffffffffffffffffffffffffffffff168173ffffffffffffffffffffffffffffffffffffffff1603610081575f6040517f1e4fbdf70000000000000000000000000000000000000000000000000000000081526004016100789190610196565b60405180910390fd5b6100908161009660201b60201c565b506101af565b5f5f5f9054906101000a900473ffffffffffffffffffffffffffffffffffffffff169050815f5f6101000a81548173ffffffffffffffffffffffffffffffffffffffff021916908373ffffffffffffffffffffffffffffffffffffffff1602179055508173ffffffffffffffffffffffffffffffffffffffff168173ffffffffffffffffffffffffffffffffffffffff167f8be0079c531659141344cd1fd0a4f28419497f9722a3daafe3b4186f6b6457e060405160405180910390a35050565b5f73ffffffffffffffffffffffffffffffffffffffff82169050919050565b5f61018082610157565b9050919050565b61019081610176565b82525050565b5f6020820190506101a95f830184610187565b92915050565b610c79806101bc5f395ff3fe608060405260043610610090575f3560e01c8063a9059cbb11610058578063a9059cbb14610162578063d0e30db01461018a578063eee9720614610194578063f2fde38b146101d0578063f8b2cb4f146101f857610090565b806315770f921461009457806327e235e3146100be5780632e1a7d4d146100fa578063715018a6146101225780638da5cb5b14610138575b5f5ffd5b34801561009f575f5ffd5b506100a8610234565b6040516100b59190610862565b60405180910390f35b3480156100c9575f5ffd5b506100e460048036038101906100df91906108d9565b61023a565b6040516100f19190610862565b60405180910390f35b348015610105575f5ffd5b50610120600480360381019061011b919061092e565b61024f565b005b34801561012d575f5ffd5b50610136610450565b005b348015610143575f5ffd5b5061014c610463565b6040516101599190610968565b60405180910390f35b34801561016d575f5ffd5b5061018860048036038101906101839190610981565b61048a565b005b61019261051f565b005b34801561019f575f5ffd5b506101ba60048036038101906101b5919061092e565b61061c565b6040516101c79190610862565b60405180910390f35b3480156101db575f5ffd5b506101f660048036038101906101f191906108d9565b610631565b005b348015610203575f5ffd5b5061021e600480360381019061021991906108d9565b6106b5565b60405161022b9190610862565b60405180910390f35b60025481565b6001602052805f5260405f205f915090505481565b335f60015f8373ffffffffffffffffffffffffffffffffffffffff1673ffffffffffffffffffffffffffffffffffffffff1681526020019081526020015f2054116102cf576040517f08c379a00000000000000000000000000000000000000000000000000000000081526004016102c690610a19565b60405180910390fd5b60015f3373ffffffffffffffffffffffffffffffffffffffff1673ffffffffffffffffffffffffffffffffffffffff1681526020019081526020015f205482111561034f576040517f08c379a000000000000000000000000000000000000000000000000000000000815260040161034690610a81565b60405180910390fd5b8160015f3373ffffffffffffffffffffffffffffffffffffffff1673ffffffffffffffffffffffffffffffffffffffff1681526020019081526020015f205f82825461039b9190610acc565b925050819055508160025f8282546103b39190610acc565b925050819055503373ffffffffffffffffffffffffffffffffffffffff166108fc8390811502906040515f60405180830381858888f193505050501580156103fd573d5f5f3e3d5ffd5b503373ffffffffffffffffffffffffffffffffffffffff167f7084f5476618d8e60b11ef0d7d3f06914655adb8793e28ff7f018d4c76d505d5836040516104449190610862565b60405180910390a25050565b6104586106fb565b6104615f610782565b565b5f5f5f9054906101000a900473ffffffffffffffffffffffffffffffffffffffff16905090565b6104926106fb565b6002548111156104d7576040517f08c379a00000000000000000000000000000000000000000000000000000000081526004016104ce90610b49565b60405180910390fd5b8173ffffffffffffffffffffffffffffffffffffffff166108fc8290811502906040515f60405180830381858888f1935050505015801561051a573d5f5f3e3d5ffd5b505050565b5f3411610561576040517f08c379a000000000000000000000000000000000000000000000000000000000815260040161055890610bb1565b60405180910390fd5b3460015f3373ffffffffffffffffffffffffffffffffffffffff1673ffffffffffffffffffffffffffffffffffffffff1681526020019081526020015f205f8282546105ad9190610bcf565b925050819055503460025f8282546105c59190610bcf565b925050819055503373ffffffffffffffffffffffffffffffffffffffff167f2da466a7b24304f47e87fa2e1e5a81b9831ce54fec19055ce277ca2f39ba42c4346040516106129190610862565b60405180910390a2565b5f60028261062a9190610c02565b9050919050565b6106396106fb565b5f73ffffffffffffffffffffffffffffffffffffffff168173ffffffffffffffffffffffffffffffffffffffff16036106a9575f6040517f1e4fbdf70000000000000000000000000000000000000000000000000000000081526004016106a09190610968565b60405180910390fd5b6106b281610782565b50565b5f60015f8373ffffffffffffffffffffffffffffffffffffffff1673ffffffffffffffffffffffffffffffffffffffff1681526020019081526020015f20549050919050565b610703610843565b73ffffffffffffffffffffffffffffffffffffffff16610721610463565b73ffffffffffffffffffffffffffffffffffffffff161461078057610744610843565b6040517f118cdaa70000000000000000000000000000000000000000000000000000000081526004016107779190610968565b60405180910390fd5b565b5f5f5f9054906101000a900473ffffffffffffffffffffffffffffffffffffffff169050815f5f6101000a81548173ffffffffffffffffffffffffffffffffffffffff021916908373ffffffffffffffffffffffffffffffffffffffff1602179055508173ffffffffffffffffffffffffffffffffffffffff168173ffffffffffffffffffffffffffffffffffffffff167f8be0079c531659141344cd1fd0a4f28419497f9722a3daafe3b4186f6b6457e060405160405180910390a35050565b5f33905090565b5f819050919050565b61085c8161084a565b82525050565b5f6020820190506108755f830184610853565b92915050565b5f5ffd5b5f73ffffffffffffffffffffffffffffffffffffffff82169050919050565b5f6108a88261087f565b9050919050565b6108b88161089e565b81146108c2575f5ffd5b50565b5f813590506108d3816108af565b92915050565b5f602082840312156108ee576108ed61087b565b5b5f6108fb848285016108c5565b91505092915050565b61090d8161084a565b8114610917575f5ffd5b50565b5f8135905061092881610904565b92915050565b5f602082840312156109435761094261087b565b5b5f6109508482850161091a565b91505092915050565b6109628161089e565b82525050565b5f60208201905061097b5f830184610959565b92915050565b5f5f604083850312156109975761099661087b565b5b5f6109a4858286016108c5565b92505060206109b58582860161091a565b9150509250929050565b5f82825260208201905092915050565b7f4e6f2062616c616e636520746f207769746864726177000000000000000000005f82015250565b5f610a036016836109bf565b9150610a0e826109cf565b602082019050919050565b5f6020820190508181035f830152610a30816109f7565b9050919050565b7f4e6f7420656e6f7567682062616c616e636500000000000000000000000000005f82015250565b5f610a6b6012836109bf565b9150610a7682610a37565b602082019050919050565b5f6020820190508181035f830152610a9881610a5f565b9050919050565b7f4e487b71000000000000000000000000000000000000000000000000000000005f52601160045260245ffd5b5f610ad68261084a565b9150610ae18361084a565b9250828203905081811115610af957610af8610a9f565b5b92915050565b7f4e6f7420656e6f756768206c69717569646974790000000000000000000000005f82015250565b5f610b336014836109bf565b9150610b3e82610aff565b602082019050919050565b5f6020820190508181035f830152610b6081610b27565b9050919050565b7f4d757374206465706f736974203e2030000000000000000000000000000000005f82015250565b5f610b9b6010836109bf565b9150610ba682610b67565b602082019050919050565b5f6020820190508181035f830152610bc881610b8f565b9050919050565b5f610bd98261084a565b9150610be48361084a565b9250828201905080821115610bfc57610bfb610a9f565b5b92915050565b5f610c0c8261084a565b9150610c178361084a565b9250828202610c258161084a565b91508282048414831517610c3c57610c3b610a9f565b5b509291505056fea2646970667358221220ab4a42b52006047726d19690af0d61106e6c599ac2fa5d99fd140688727dcf5d64736f6c634300081c0033",
  "linkReferences": {},
  "deployedLinkReferences": {},
  "immutableReferences": {},
  "inputSourceName": "project/contracts/LiquidityPool.sol",
  "buildInfoId": "solc-0_8_28-b38350c44c8a8e976eb390974c098b070ff7871c"
}