{
  "_format": "hh3-artifact-1",
  "contractName": "LiquidityPool",
  "sourceName": "contracts/LiquidityPool.sol",
  "abi": [
    {
      "inputs": [],
      "stateMutability": "nonpayable",
      "type": "constructor"
    },
    {
      "inputs": [
        {
          "internalType": "address",
          "name": "owner",
          "type": "address"
        }
      ],
      "name": "OwnableInvalidOwner",
      "type": "error"
    },
    {
      "inputs": [
        {
          "internalType": "address",
          "name": "account",
          "type": "address"
        }
      ],
      "name": "OwnableUnauthorizedAccount",
      "type": "error"
    },
    {
      "anonymous": false,
      "inputs": [
        {
          "indexed": true,
          "internalType": "address",
          "name": "user",
          "type": "address"
        },
        {
          "indexed": false,
          "internalType": "uint256",
          "name": "amount",
          "type": "uint256"
        }
      ],
      "name": "Deposited",
      "type": "event"
    },
    {
      "anonymous": false,
      "inputs": [
        {
          "indexed": true,
          "internalType": "address",
          "name": "previousOwner",
          "type": "address"
        },
        {
          "indexed": true,
          "internalType": "address",
          "name": "newOwner",
          "type": "address"
        }
      ],
      "name": "OwnershipTransferred",
      "type": "event"
    },
    {
      "anonymous": false,
      "inputs": [
        {
          "indexed": true,
          "internalType": "address",
          "name": "to",
          "type": "address"
        },
        {
          "indexed": false,
          "internalType": "uint256",
          "name": "amount",
          "type": "uint256"
        }
      ],
      "name": "Transferred",
      "type": "event"
    },
    {
      "anonymous": false,
      "inputs": [
        {
          "indexed": true,
          "internalType": "address",
          "name": "user",
          "type": "address"
        },
        {
          "indexed": false,
          "internalType": "uint256",
          "name": "amount",
          "type": "uint256"
        }
      ],
      "name": "Withdrawn",
      "type": "event"
    },
    {
      "inputs": [
        {
          "internalType": "address",
          "name": "",
          "type": "address"
        }
      ],
      "name": "balances",
      "outputs": [
        {
          "internalType": "uint256",
          "name": "",
          "type": "uint256"
        }
      ],
      "stateMutability": "view",
      "type": "function"
    },
    {
      "inputs": [],
      "name": "deposit",
      "outputs": [],
      "stateMutability": "payable",
      "type": "function"
    },
    {
      "inputs": [
        {
          "internalType": "address",
          "name": "user",
          "type": "address"
        }
      ],
      "name": "getBalance",
      "outputs": [
        {
          "internalType": "uint256",
          "name": "",
          "type": "uint256"
        }
      ],
      "stateMutability": "view",
      "type": "function"
    },
    {
      "inputs": [],
      "name": "owner",
      "outputs": [
        {
          "internalType": "address",
          "name": "",
          "type": "address"
        }
      ],
      "stateMutability": "view",
      "type": "function"
    },
    {
      "inputs": [],
      "name": "predictionMarket",
      "outputs": [
        {
          "internalType": "address",
          "name": "",
          "type": "address"
        }
      ],
      "stateMutability": "view",
      "type": "function"
    },
    {
      "inputs": [],
      "name": "renounceOwnership",
      "outputs": [],
      "stateMutability": "nonpayable",
      "type": "function"
    },
    {
      "inputs": [
        {
          "internalType": "address",
          "name": "_pm",
          "type": "address"
        }
      ],
      "name": "setPredictionMarket",
      "outputs": [],
      "stateMutability": "nonpayable",
      "type": "function"
    },
    {
      "inputs": [],
      "name": "totalLiquidity",
      "outputs": [
        {
          "internalType": "uint256",
          "name": "",
          "type": "uint256"
        }
      ],
      "stateMutability": "view",
      "type": "function"
    },
    {
      "inputs": [
        {
          "internalType": "address",
          "name": "to",
          "type": "address"
        },
        {
          "internalType": "uint256",
          "name": "amount",
          "type": "uint256"
        }
      ],
      "name": "transfer",
      "outputs": [],
      "stateMutability": "nonpayable",
      "type": "function"
    },
    {
      "inputs": [
        {
          "internalType": "address",
          "name": "newOwner",
          "type": "address"
        }
      ],
      "name": "transferOwnership",
      "outputs": [],
      "stateMutability": "nonpayable",
      "type": "function"
    },
    {
      "inputs": [
        {
          "internalType": "uint256",
          "name": "amount",
          "type": "uint256"
        }
      ],
      "name": "withdraw",
      "outputs": [],
      "stateMutability": "nonpayable",
      "type": "function"
    }
  ],
  "bytecode": "0x608060405234801561000f575f5ffd5b50335f73ffffffffffffffffffffffffffffffffffffffff168173ffffffffffffffffffffffffffffffffffffffff1603610081575f6040517f1e4fbdf70000000000000000000000000000000000000000000000000000000081526004016100789190610196565b60405180910390fd5b6100908161009660201b60201c565b506101af565b5f5f5f9054906101000a900473ffffffffffffffffffffffffffffffffffffffff169050815f5f6101000a81548173ffffffffffffffffffffffffffffffffffffffff021916908373ffffffffffffffffffffffffffffffffffffffff1602179055508173ffffffffffffffffffffffffffffffffffffffff168173ffffffffffffffffffffffffffffffffffffffff167f8be0079c531659141344cd1fd0a4f28419497f9722a3daafe3b4186f6b6457e060405160405180910390a35050565b5f73ffffffffffffffffffffffffffffffffffffffff82169050919050565b5f61018082610157565b9050919050565b61019081610176565b82525050565b5f6020820190506101a95f830184610187565b92915050565b610e46806101bc5f395ff3fe60806040526004361061009b575f3560e01c80638da5cb5b116100635780638da5cb5b1461016b578063a9059cbb14610195578063d0e30db0146101bd578063def114b6146101c7578063f2fde38b146101f1578063f8b2cb4f146102195761009b565b806303b88ba21461009f57806315770f92146100c757806327e235e3146100f15780632e1a7d4d1461012d578063715018a614610155575b5f5ffd5b3480156100aa575f5ffd5b506100c560048036038101906100c09190610a4e565b610255565b005b3480156100d2575f5ffd5b506100db6102a0565b6040516100e89190610a91565b60405180910390f35b3480156100fc575f5ffd5b5061011760048036038101906101129190610a4e565b6102a6565b6040516101249190610a91565b60405180910390f35b348015610138575f5ffd5b50610153600480360381019061014e9190610ad4565b6102bb565b005b348015610160575f5ffd5b506101696104bc565b005b348015610176575f5ffd5b5061017f6104cf565b60405161018c9190610b0e565b60405180910390f35b3480156101a0575f5ffd5b506101bb60048036038101906101b69190610b27565b6104f6565b005b6101c56106b5565b005b3480156101d2575f5ffd5b506101db6107b2565b6040516101e89190610b0e565b60405180910390f35b3480156101fc575f5ffd5b5061021760048036038101906102129190610a4e565b6107d7565b005b348015610224575f5ffd5b5061023f600480360381019061023a9190610a4e565b61085b565b60405161024c9190610a91565b60405180910390f35b61025d6108a1565b8060035f6101000a81548173ffffffffffffffffffffffffffffffffffffffff021916908373ffffffffffffffffffffffffffffffffffffffff16021790555050565b60025481565b6001602052805f5260405f205f915090505481565b335f60015f8373ffffffffffffffffffffffffffffffffffffffff1673ffffffffffffffffffffffffffffffffffffffff1681526020019081526020015f20541161033b576040517f08c379a000000000000000000000000000000000000000000000000000000000815260040161033290610bbf565b60405180910390fd5b60015f3373ffffffffffffffffffffffffffffffffffffffff1673ffffffffffffffffffffffffffffffffffffffff1681526020019081526020015f20548211156103bb576040517f08c379a00000000000000000000000000000000000000000000000000000000081526004016103b290610c27565b60405180910390fd5b8160015f3373ffffffffffffffffffffffffffffffffffffffff1673ffffffffffffffffffffffffffffffffffffffff1681526020019081526020015f205f8282546104079190610c72565b925050819055508160025f82825461041f9190610c72565b925050819055503373ffffffffffffffffffffffffffffffffffffffff166108fc8390811502906040515f60405180830381858888f19350505050158015610469573d5f5f3e3d5ffd5b503373ffffffffffffffffffffffffffffffffffffffff167f7084f5476618d8e60b11ef0d7d3f06914655adb8793e28ff7f018d4c76d505d5836040516104b09190610a91565b60405180910390a25050565b6104c46108a1565b6104cd5f610928565b565b5f5f5f9054906101000a900473ffffffffffffffffffffffffffffffffffffffff16905090565b6104fe6104cf565b73ffffffffffffffffffffffffffffffffffffffff163373ffffffffffffffffffffffffffffffffffffffff161480610583575060035f9054906101000a900473ffffffffffffffffffffffffffffffffffffffff1673ffffffffffffffffffffffffffffffffffffffff163373ffffffffffffffffffffffffffffffffffffffff16145b6105c2576040517f08c379a00000000000000000000000000000000000000000000000000000000081526004016105b990610cef565b60405180910390fd5b600254811115610607576040517f08c379a00000000000000000000000000000000000000000000000000000000081526004016105fe90610d57565b60405180910390fd5b8060025f8282546106189190610c72565b925050819055508173ffffffffffffffffffffffffffffffffffffffff166108fc8290811502906040515f60405180830381858888f19350505050158015610662573d5f5f3e3d5ffd5b508173ffffffffffffffffffffffffffffffffffffffff167fe6d858f14d755446648a6e0c8ab8b5a0f58ccc7920d4c910b0454e4dcd869af0826040516106a99190610a91565b60405180910390a25050565b5f34116106f7576040517f08c379a00000000000000000000000000000000000000000000000000000000081526004016106ee90610dbf565b60405180910390fd5b3460015f3373ffffffffffffffffffffffffffffffffffffffff1673ffffffffffffffffffffffffffffffffffffffff1681526020019081526020015f205f8282546107439190610ddd565b925050819055503460025f82825461075b9190610ddd565b925050819055503373ffffffffffffffffffffffffffffffffffffffff167f2da466a7b24304f47e87fa2e1e5a81b9831ce54fec19055ce277ca2f39ba42c4346040516107a89190610a91565b60405180910390a2565b60035f9054906101000a900473ffffffffffffffffffffffffffffffffffffffff1681565b6107df6108a1565b5f73ffffffffffffffffffffffffffffffffffffffff168173ffffffffffffffffffffffffffffffffffffffff160361084f575f6040517f1e4fbdf70000000000000000000000000000000000000000000000000000000081526004016108469190610b0e565b60405180910390fd5b61085881610928565b50565b5f60015f8373ffffffffffffffffffffffffffffffffffffffff1673ffffffffffffffffffffffffffffffffffffffff1681526020019081526020015f20549050919050565b6108a96109e9565b73ffffffffffffffffffffffffffffffffffffffff166108c76104cf565b73ffffffffffffffffffffffffffffffffffffffff1614610926576108ea6109e9565b6040517f118cdaa700000000000000000000000000000000000000000000000000000000815260040161091d9190610b0e565b60405180910390fd5b565b5f5f5f9054906101000a900473ffffffffffffffffffffffffffffffffffffffff169050815f5f6101000a81548173ffffffffffffffffffffffffffffffffffffffff021916908373ffffffffffffffffffffffffffffffffffffffff1602179055508173ffffffffffffffffffffffffffffffffffffffff168173ffffffffffffffffffffffffffffffffffffffff167f8be0079c531659141344cd1fd0a4f28419497f9722a3daafe3b4186f6b6457e060405160405180910390a35050565b5f33905090565b5f5ffd5b5f73ffffffffffffffffffffffffffffffffffffffff82169050919050565b5f610a1d826109f4565b9050919050565b610a2d81610a13565b8114610a37575f5ffd5b50565b5f81359050610a4881610a24565b92915050565b5f60208284031215610a6357610a626109f0565b5b5f610a7084828501610a3a565b91505092915050565b5f819050919050565b610a8b81610a79565b82525050565b5f602082019050610aa45f830184610a82565b92915050565b610ab381610a79565b8114610abd575f5ffd5b50565b5f81359050610ace81610aaa565b92915050565b5f60208284031215610ae957610ae86109f0565b5b5f610af684828501610ac0565b91505092915050565b610b0881610a13565b82525050565b5f602082019050610b215f830184610aff565b92915050565b5f5f60408385031215610b3d57610b3c6109f0565b5b5f610b4a85828601610a3a565b9250506020610b5b85828601610ac0565b9150509250929050565b5f82825260208201905092915050565b7f4e6f2062616c616e636520746f207769746864726177000000000000000000005f82015250565b5f610ba9601683610b65565b9150610bb482610b75565b602082019050919050565b5f6020820190508181035f830152610bd681610b9d565b9050919050565b7f4e6f7420656e6f7567682062616c616e636500000000000000000000000000005f82015250565b5f610c11601283610b65565b9150610c1c82610bdd565b602082019050919050565b5f6020820190508181035f830152610c3e81610c05565b9050919050565b7f4e487b71000000000000000000000000000000000000000000000000000000005f52601160045260245ffd5b5f610c7c82610a79565b9150610c8783610a79565b9250828203905081811115610c9f57610c9e610c45565b5b92915050565b7f4e6f7420616c6c6f7765640000000000000000000000000000000000000000005f82015250565b5f610cd9600b83610b65565b9150610ce482610ca5565b602082019050919050565b5f6020820190508181035f830152610d0681610ccd565b9050919050565b7f4e6f7420656e6f756768206c69717569646974790000000000000000000000005f82015250565b5f610d41601483610b65565b9150610d4c82610d0d565b602082019050919050565b5f6020820190508181035f830152610d6e81610d35565b9050919050565b7f4d757374206465706f736974203e2030000000000000000000000000000000005f82015250565b5f610da9601083610b65565b9150610db482610d75565b602082019050919050565b5f6020820190508181035f830152610dd681610d9d565b9050919050565b5f610de782610a79565b9150610df283610a79565b9250828201905080821115610e0a57610e09610c45565b5b9291505056fea264697066735822122003872cc18ea3337cd0a31351b81742af7f19d8659c72439a2830734a799434c764736f6c634300081c0033",
  "linkReferences": {},
  "deployedLinkReferences": {},
  "immutableReferences": {},
  "inputSourceName": "project/contracts/LiquidityPool.sol",
  "buildInfoId": "solc-0_8_28-6ec236bf4c02fcaa702d73b0e5b0d8ca77ce9046"
}