{
  "_format": "hh3-artifact-1",
  "contractName": "PredictionMarket",
  "sourceName": "contracts/PredictionMarket.sol",
  "abi": [
    {
      "inputs": [
        {
          "internalType": "address payable",
          "name": "_pool",
          "type": "address"
        }
      ],
      "stateMutability": "nonpayable",
      "type": "constructor"
    },
    {
      "inputs": [
        {
          "internalType": "address",
          "name": "owner",
          "type": "address"
        }
      ],
      "name": "OwnableInvalidOwner",
      "type": "error"
    },
    {
      "inputs": [
        {
          "internalType": "address",
          "name": "account",
          "type": "address"
        }
      ],
      "name": "OwnableUnauthorizedAccount",
      "type": "error"
    },
    {
      "anonymous": false,
      "inputs": [
        {
          "indexed": true,
          "internalType": "uint256",
          "name": "eventId",
          "type": "uint256"
        },
        {
          "indexed": true,
          "internalType": "address",
          "name": "bettor",
          "type": "address"
        },
        {
          "indexed": false,
          "internalType": "uint256",
          "name": "amount",
          "type": "uint256"
        },
        {
          "indexed": false,
          "internalType": "uint8",
          "name": "outcome",
          "type": "uint8"
        }
      ],
      "name": "BetPlaced",
      "type": "event"
    },
    {
      "anonymous": false,
      "inputs": [
        {
          "indexed": true,
          "internalType": "address",
          "name": "previousOwner",
          "type": "address"
        },
        {
          "indexed": true,
          "internalType": "address",
          "name": "newOwner",
          "type": "address"
        }
      ],
      "name": "OwnershipTransferred",
      "type": "event"
    },
    {
      "anonymous": false,
      "inputs": [
        {
          "indexed": true,
          "internalType": "uint256",
          "name": "eventId",
          "type": "uint256"
        },
        {
          "indexed": true,
          "internalType": "address",
          "name": "bettor",
          "type": "address"
        },
        {
          "indexed": false,
          "internalType": "uint256",
          "name": "amount",
          "type": "uint256"
        }
      ],
      "name": "Payout",
      "type": "event"
    },
    {
      "anonymous": false,
      "inputs": [
        {
          "indexed": false,
          "internalType": "address",
          "name": "oracle",
          "type": "address"
        }
      ],
      "name": "SportsOracleSet",
      "type": "event"
    },
    {
      "inputs": [
        {
          "internalType": "uint256",
          "name": "",
          "type": "uint256"
        },
        {
          "internalType": "uint256",
          "name": "",
          "type": "uint256"
        }
      ],
      "name": "bets",
      "outputs": [
        {
          "internalType": "uint256",
          "name": "amount",
          "type": "uint256"
        },
        {
          "internalType": "uint8",
          "name": "outcome",
          "type": "uint8"
        },
        {
          "internalType": "address",
          "name": "bettor",
          "type": "address"
        },
        {
          "internalType": "bool",
          "name": "paid",
          "type": "bool"
        }
      ],
      "stateMutability": "view",
      "type": "function"
    },
    {
      "inputs": [
        {
          "internalType": "uint256",
          "name": "betAmount",
          "type": "uint256"
        },
        {
          "internalType": "uint8",
          "name": "multiplier",
          "type": "uint8"
        }
      ],
      "name": "calculatePotentialPrize",
      "outputs": [
        {
          "internalType": "uint256",
          "name": "",
          "type": "uint256"
        }
      ],
      "stateMutability": "pure",
      "type": "function"
    },
    {
      "inputs": [],
      "name": "owner",
      "outputs": [
        {
          "internalType": "address",
          "name": "",
          "type": "address"
        }
      ],
      "stateMutability": "view",
      "type": "function"
    },
    {
      "inputs": [
        {
          "internalType": "uint256",
          "name": "eventId",
          "type": "uint256"
        },
        {
          "internalType": "uint8",
          "name": "outcome",
          "type": "uint8"
        }
      ],
      "name": "placeBet",
      "outputs": [],
      "stateMutability": "payable",
      "type": "function"
    },
    {
      "inputs": [],
      "name": "pool",
      "outputs": [
        {
          "internalType": "contract LiquidityPool",
          "name": "",
          "type": "address"
        }
      ],
      "stateMutability": "view",
      "type": "function"
    },
    {
      "inputs": [],
      "name": "renounceOwnership",
      "outputs": [],
      "stateMutability": "nonpayable",
      "type": "function"
    },
    {
      "inputs": [
        {
          "internalType": "uint256",
          "name": "eventId",
          "type": "uint256"
        }
      ],
      "name": "resolveEvent",
      "outputs": [],
      "stateMutability": "nonpayable",
      "type": "function"
    },
    {
      "inputs": [
        {
          "internalType": "address",
          "name": "_oracle",
          "type": "address"
        }
      ],
      "name": "setSportsOracle",
      "outputs": [],
      "stateMutability": "nonpayable",
      "type": "function"
    },
    {
      "inputs": [],
      "name": "sportsOracle",
      "outputs": [
        {
          "internalType": "contract ISportsOracle",
          "name": "",
          "type": "address"
        }
      ],
      "stateMutability": "view",
      "type": "function"
    },
    {
      "inputs": [
        {
          "internalType": "address",
          "name": "newOwner",
          "type": "address"
        }
      ],
      "name": "transferOwnership",
      "outputs": [],
      "stateMutability": "nonpayable",
      "type": "function"
    }
  ],
  "bytecode": "0x608060405234801561000f575f5ffd5b5060405161129838038061129883398181016040528101906100319190610217565b335f73ffffffffffffffffffffffffffffffffffffffff168173ffffffffffffffffffffffffffffffffffffffff16036100a2575f6040517f1e4fbdf70000000000000000000000000000000000000000000000000000000081526004016100999190610262565b60405180910390fd5b6100b1816100f860201b60201c565b508060025f6101000a81548173ffffffffffffffffffffffffffffffffffffffff021916908373ffffffffffffffffffffffffffffffffffffffff1602179055505061027b565b5f5f5f9054906101000a900473ffffffffffffffffffffffffffffffffffffffff169050815f5f6101000a81548173ffffffffffffffffffffffffffffffffffffffff021916908373ffffffffffffffffffffffffffffffffffffffff1602179055508173ffffffffffffffffffffffffffffffffffffffff168173ffffffffffffffffffffffffffffffffffffffff167f8be0079c531659141344cd1fd0a4f28419497f9722a3daafe3b4186f6b6457e060405160405180910390a35050565b5f5ffd5b5f73ffffffffffffffffffffffffffffffffffffffff82169050919050565b5f6101e6826101bd565b9050919050565b6101f6816101dc565b8114610200575f5ffd5b50565b5f81519050610211816101ed565b92915050565b5f6020828403121561022c5761022b6101b9565b5b5f61023984828501610203565b91505092915050565b5f61024c826101bd565b9050919050565b61025c81610242565b82525050565b5f6020820190506102755f830184610253565b92915050565b611010806102885f395ff3fe608060405260043610610090575f3560e01c80638ac99dc7116100585780638ac99dc7146101575780638da5cb5b14610193578063a2bdf00c146101bd578063bed524d6146101e7578063f2fde38b1461020f57610090565b806303edf9141461009457806316f0115b146100b05780632af9c140146100da5780636a09f6be14610102578063715018a614610141575b5f5ffd5b6100ae60048036038101906100a99190610ac4565b610237565b005b3480156100bb575f5ffd5b506100c46103d2565b6040516100d19190610b7c565b60405180910390f35b3480156100e5575f5ffd5b5061010060048036038101906100fb9190610bd0565b6103f7565b005b34801561010d575f5ffd5b5061012860048036038101906101239190610bfb565b610479565b6040516101389493929190610c80565b60405180910390f35b34801561014c575f5ffd5b506101556104f8565b005b348015610162575f5ffd5b5061017d60048036038101906101789190610ac4565b61050b565b60405161018a9190610cc3565b60405180910390f35b34801561019e575f5ffd5b506101a76105aa565b6040516101b49190610cdc565b60405180910390f35b3480156101c8575f5ffd5b506101d16105d1565b6040516101de9190610d26565b60405180910390f35b3480156101f2575f5ffd5b5061020d60048036038101906102089190610d3f565b6105f6565b005b34801561021a575f5ffd5b5061023560048036038101906102309190610bd0565b6106a0565b005b5f3411610279576040517f08c379a000000000000000000000000000000000000000000000000000000000815260040161027090610dc4565b60405180910390fd5b60015f8381526020019081526020015f2060405180608001604052803481526020018360ff1681526020013373ffffffffffffffffffffffffffffffffffffffff1681526020015f1515815250908060018154018082558091505060019003905f5260205f2090600202015f909190919091505f820151815f01556020820151816001015f6101000a81548160ff021916908360ff16021790555060408201518160010160016101000a81548173ffffffffffffffffffffffffffffffffffffffff021916908373ffffffffffffffffffffffffffffffffffffffff16021790555060608201518160010160156101000a81548160ff02191690831515021790555050503373ffffffffffffffffffffffffffffffffffffffff16827fe90186097616cbeb30ffc786b44501e1362f5e0a316a96c5ab82a0551f9d2f0534846040516103c6929190610de2565b60405180910390a35050565b60025f9054906101000a900473ffffffffffffffffffffffffffffffffffffffff1681565b6103ff610724565b8060035f6101000a81548173ffffffffffffffffffffffffffffffffffffffff021916908373ffffffffffffffffffffffffffffffffffffffff1602179055507f5e4ea73e0fc8d80174ff780d83f59a90071b0a2d93c0b800c5b4077092bbcc7f8160405161046e9190610cdc565b60405180910390a150565b6001602052815f5260405f208181548110610492575f80fd5b905f5260205f2090600202015f9150915050805f015490806001015f9054906101000a900460ff16908060010160019054906101000a900473ffffffffffffffffffffffffffffffffffffffff16908060010160159054906101000a900460ff16905084565b610500610724565b6105095f6107ab565b565b5f5f831161054e576040517f08c379a000000000000000000000000000000000000000000000000000000000815260040161054590610e53565b60405180910390fd5b5f8260ff1611610593576040517f08c379a000000000000000000000000000000000000000000000000000000000815260040161058a90610ebb565b60405180910390fd5b8160ff16836105a29190610f06565b905092915050565b5f5f5f9054906101000a900473ffffffffffffffffffffffffffffffffffffffff16905090565b60035f9054906101000a900473ffffffffffffffffffffffffffffffffffffffff1681565b5f60035f9054906101000a900473ffffffffffffffffffffffffffffffffffffffff1673ffffffffffffffffffffffffffffffffffffffff1663995e4339836040518263ffffffff1660e01b81526004016106519190610cc3565b602060405180830381865afa15801561066c573d5f5f3e3d5ffd5b505050506040513d601f19601f820116820180604052508101906106909190610f5b565b905061069c828261086c565b5050565b6106a8610724565b5f73ffffffffffffffffffffffffffffffffffffffff168173ffffffffffffffffffffffffffffffffffffffff1603610718575f6040517f1e4fbdf700000000000000000000000000000000000000000000000000000000815260040161070f9190610cdc565b60405180910390fd5b610721816107ab565b50565b61072c610a50565b73ffffffffffffffffffffffffffffffffffffffff1661074a6105aa565b73ffffffffffffffffffffffffffffffffffffffff16146107a95761076d610a50565b6040517f118cdaa70000000000000000000000000000000000000000000000000000000081526004016107a09190610cdc565b60405180910390fd5b565b5f5f5f9054906101000a900473ffffffffffffffffffffffffffffffffffffffff169050815f5f6101000a81548173ffffffffffffffffffffffffffffffffffffffff021916908373ffffffffffffffffffffffffffffffffffffffff1602179055508173ffffffffffffffffffffffffffffffffffffffff168173ffffffffffffffffffffffffffffffffffffffff167f8be0079c531659141344cd1fd0a4f28419497f9722a3daafe3b4186f6b6457e060405160405180910390a35050565b5f60015f8481526020019081526020015f2090505f5f90505b8180549050811015610a4a575f8282815481106108a5576108a4610f86565b5b905f5260205f20906002020190508060010160159054906101000a900460ff161580156108e757508360ff16816001015f9054906101000a900460ff1660ff16145b15610a3c575f6108fb825f0154600261050b565b905060025f9054906101000a900473ffffffffffffffffffffffffffffffffffffffff1673ffffffffffffffffffffffffffffffffffffffff1663117de2fd8360010160019054906101000a900473ffffffffffffffffffffffffffffffffffffffff16836040518363ffffffff1660e01b815260040161097d929190610fb3565b5f604051808303815f87803b158015610994575f5ffd5b505af11580156109a6573d5f5f3e3d5ffd5b5050505060018260010160156101000a81548160ff0219169083151502179055508160010160019054906101000a900473ffffffffffffffffffffffffffffffffffffffff1673ffffffffffffffffffffffffffffffffffffffff16867f5f7341a552ae2d452b071917104c05fbac3663936a69be768a05c40605056e7d83604051610a329190610cc3565b60405180910390a3505b508080600101915050610885565b50505050565b5f33905090565b5f5ffd5b5f819050919050565b610a6d81610a5b565b8114610a77575f5ffd5b50565b5f81359050610a8881610a64565b92915050565b5f60ff82169050919050565b610aa381610a8e565b8114610aad575f5ffd5b50565b5f81359050610abe81610a9a565b92915050565b5f5f60408385031215610ada57610ad9610a57565b5b5f610ae785828601610a7a565b9250506020610af885828601610ab0565b9150509250929050565b5f73ffffffffffffffffffffffffffffffffffffffff82169050919050565b5f819050919050565b5f610b44610b3f610b3a84610b02565b610b21565b610b02565b9050919050565b5f610b5582610b2a565b9050919050565b5f610b6682610b4b565b9050919050565b610b7681610b5c565b82525050565b5f602082019050610b8f5f830184610b6d565b92915050565b5f610b9f82610b02565b9050919050565b610baf81610b95565b8114610bb9575f5ffd5b50565b5f81359050610bca81610ba6565b92915050565b5f60208284031215610be557610be4610a57565b5b5f610bf284828501610bbc565b91505092915050565b5f5f60408385031215610c1157610c10610a57565b5b5f610c1e85828601610a7a565b9250506020610c2f85828601610a7a565b9150509250929050565b610c4281610a5b565b82525050565b610c5181610a8e565b82525050565b610c6081610b95565b82525050565b5f8115159050919050565b610c7a81610c66565b82525050565b5f608082019050610c935f830187610c39565b610ca06020830186610c48565b610cad6040830185610c57565b610cba6060830184610c71565b95945050505050565b5f602082019050610cd65f830184610c39565b92915050565b5f602082019050610cef5f830184610c57565b92915050565b5f610cff82610b2a565b9050919050565b5f610d1082610cf5565b9050919050565b610d2081610d06565b82525050565b5f602082019050610d395f830184610d17565b92915050565b5f60208284031215610d5457610d53610a57565b5b5f610d6184828501610a7a565b91505092915050565b5f82825260208201905092915050565b7f416d6f756e74206d757374206265203e203000000000000000000000000000005f82015250565b5f610dae601283610d6a565b9150610db982610d7a565b602082019050919050565b5f6020820190508181035f830152610ddb81610da2565b9050919050565b5f604082019050610df55f830185610c39565b610e026020830184610c48565b9392505050565b7f426574206d757374206265203e203000000000000000000000000000000000005f82015250565b5f610e3d600f83610d6a565b9150610e4882610e09565b602082019050919050565b5f6020820190508181035f830152610e6a81610e31565b9050919050565b7f4d756c7469706c696572206d757374206265203e2030000000000000000000005f82015250565b5f610ea5601683610d6a565b9150610eb082610e71565b602082019050919050565b5f6020820190508181035f830152610ed281610e99565b9050919050565b7f4e487b71000000000000000000000000000000000000000000000000000000005f52601160045260245ffd5b5f610f1082610a5b565b9150610f1b83610a5b565b9250828202610f2981610a5b565b91508282048414831517610f4057610f3f610ed9565b5b5092915050565b5f81519050610f5581610a9a565b92915050565b5f60208284031215610f7057610f6f610a57565b5b5f610f7d84828501610f47565b91505092915050565b7f4e487b71000000000000000000000000000000000000000000000000000000005f52603260045260245ffd5b5f604082019050610fc65f830185610c57565b610fd36020830184610c39565b939250505056fea2646970667358221220429617a9faa336ebbb6aea9b5ea43e58fb86e1a09ad97d5ca13157c259e9959764736f6c634300081c0033",
  "linkReferences": {},
  "deployedLinkReferences": {},
  "immutableReferences": {},
  "inputSourceName": "project/contracts/PredictionMarket.sol",
  "buildInfoId": "solc-0_8_28-9da83f2db50b7bc396122f5ffb30fe6cbfc40652"
}