{
  "_format": "hh3-artifact-1",
  "contractName": "PredictionMarket",
  "sourceName": "contracts/PredictionMarket.sol",
  "abi": [
    {
      "inputs": [
        {
          "internalType": "address payable",
          "name": "_pool",
          "type": "address"
        }
      ],
      "stateMutability": "nonpayable",
      "type": "constructor"
    },
    {
      "inputs": [
        {
          "internalType": "address",
          "name": "owner",
          "type": "address"
        }
      ],
      "name": "OwnableInvalidOwner",
      "type": "error"
    },
    {
      "inputs": [
        {
          "internalType": "address",
          "name": "account",
          "type": "address"
        }
      ],
      "name": "OwnableUnauthorizedAccount",
      "type": "error"
    },
    {
      "anonymous": false,
      "inputs": [
        {
          "indexed": true,
          "internalType": "uint256",
          "name": "eventId",
          "type": "uint256"
        },
        {
          "indexed": true,
          "internalType": "address",
          "name": "bettor",
          "type": "address"
        },
        {
          "indexed": false,
          "internalType": "uint256",
          "name": "amount",
          "type": "uint256"
        },
        {
          "indexed": false,
          "internalType": "uint8",
          "name": "outcome",
          "type": "uint8"
        }
      ],
      "name": "BetPlaced",
      "type": "event"
    },
    {
      "anonymous": false,
      "inputs": [
        {
          "indexed": true,
          "internalType": "address",
          "name": "previousOwner",
          "type": "address"
        },
        {
          "indexed": true,
          "internalType": "address",
          "name": "newOwner",
          "type": "address"
        }
      ],
      "name": "OwnershipTransferred",
      "type": "event"
    },
    {
      "anonymous": false,
      "inputs": [
        {
          "indexed": true,
          "internalType": "uint256",
          "name": "eventId",
          "type": "uint256"
        },
        {
          "indexed": true,
          "internalType": "address",
          "name": "bettor",
          "type": "address"
        },
        {
          "indexed": false,
          "internalType": "uint256",
          "name": "amount",
          "type": "uint256"
        }
      ],
      "name": "Payout",
      "type": "event"
    },
    {
      "anonymous": false,
      "inputs": [
        {
          "indexed": false,
          "internalType": "address",
          "name": "oracle",
          "type": "address"
        }
      ],
      "name": "SportsOracleSet",
      "type": "event"
    },
    {
      "inputs": [
        {
          "internalType": "uint256",
          "name": "",
          "type": "uint256"
        },
        {
          "internalType": "uint256",
          "name": "",
          "type": "uint256"
        }
      ],
      "name": "bets",
      "outputs": [
        {
          "internalType": "uint256",
          "name": "amount",
          "type": "uint256"
        },
        {
          "internalType": "uint8",
          "name": "outcome",
          "type": "uint8"
        },
        {
          "internalType": "address",
          "name": "bettor",
          "type": "address"
        },
        {
          "internalType": "bool",
          "name": "paid",
          "type": "bool"
        }
      ],
      "stateMutability": "view",
      "type": "function"
    },
    {
      "inputs": [],
      "name": "owner",
      "outputs": [
        {
          "internalType": "address",
          "name": "",
          "type": "address"
        }
      ],
      "stateMutability": "view",
      "type": "function"
    },
    {
      "inputs": [
        {
          "internalType": "uint256",
          "name": "eventId",
          "type": "uint256"
        },
        {
          "internalType": "uint8",
          "name": "outcome",
          "type": "uint8"
        }
      ],
      "name": "placeBet",
      "outputs": [],
      "stateMutability": "payable",
      "type": "function"
    },
    {
      "inputs": [],
      "name": "pool",
      "outputs": [
        {
          "internalType": "contract LiquidityPool",
          "name": "",
          "type": "address"
        }
      ],
      "stateMutability": "view",
      "type": "function"
    },
    {
      "inputs": [],
      "name": "renounceOwnership",
      "outputs": [],
      "stateMutability": "nonpayable",
      "type": "function"
    },
    {
      "inputs": [
        {
          "internalType": "uint256",
          "name": "eventId",
          "type": "uint256"
        }
      ],
      "name": "resolveEvent",
      "outputs": [],
      "stateMutability": "nonpayable",
      "type": "function"
    },
    {
      "inputs": [
        {
          "internalType": "address",
          "name": "_oracle",
          "type": "address"
        }
      ],
      "name": "setSportsOracle",
      "outputs": [],
      "stateMutability": "nonpayable",
      "type": "function"
    },
    {
      "inputs": [],
      "name": "sportsOracle",
      "outputs": [
        {
          "internalType": "contract ISportsOracle",
          "name": "",
          "type": "address"
        }
      ],
      "stateMutability": "view",
      "type": "function"
    },
    {
      "inputs": [
        {
          "internalType": "address",
          "name": "newOwner",
          "type": "address"
        }
      ],
      "name": "transferOwnership",
      "outputs": [],
      "stateMutability": "nonpayable",
      "type": "function"
    }
  ],
  "bytecode": "0x608060405234801561000f575f5ffd5b506040516110e43803806110e483398181016040528101906100319190610217565b335f73ffffffffffffffffffffffffffffffffffffffff168173ffffffffffffffffffffffffffffffffffffffff16036100a2575f6040517f1e4fbdf70000000000000000000000000000000000000000000000000000000081526004016100999190610262565b60405180910390fd5b6100b1816100f860201b60201c565b508060025f6101000a81548173ffffffffffffffffffffffffffffffffffffffff021916908373ffffffffffffffffffffffffffffffffffffffff1602179055505061027b565b5f5f5f9054906101000a900473ffffffffffffffffffffffffffffffffffffffff169050815f5f6101000a81548173ffffffffffffffffffffffffffffffffffffffff021916908373ffffffffffffffffffffffffffffffffffffffff1602179055508173ffffffffffffffffffffffffffffffffffffffff168173ffffffffffffffffffffffffffffffffffffffff167f8be0079c531659141344cd1fd0a4f28419497f9722a3daafe3b4186f6b6457e060405160405180910390a35050565b5f5ffd5b5f73ffffffffffffffffffffffffffffffffffffffff82169050919050565b5f6101e6826101bd565b9050919050565b6101f6816101dc565b8114610200575f5ffd5b50565b5f81519050610211816101ed565b92915050565b5f6020828403121561022c5761022b6101b9565b5b5f61023984828501610203565b91505092915050565b5f61024c826101bd565b9050919050565b61025c81610242565b82525050565b5f6020820190506102755f830184610253565b92915050565b610e5c806102885f395ff3fe608060405260043610610085575f3560e01c8063715018a611610058578063715018a6146101365780638da5cb5b1461014c578063a2bdf00c14610176578063bed524d6146101a0578063f2fde38b146101c857610085565b806303edf9141461008957806316f0115b146100a55780632af9c140146100cf5780636a09f6be146100f7575b5f5ffd5b6100a3600480360381019061009e91906109e0565b6101f0565b005b3480156100b0575f5ffd5b506100b961038b565b6040516100c69190610a98565b60405180910390f35b3480156100da575f5ffd5b506100f560048036038101906100f09190610aec565b6103b0565b005b348015610102575f5ffd5b5061011d60048036038101906101189190610b17565b610432565b60405161012d9493929190610b9c565b60405180910390f35b348015610141575f5ffd5b5061014a6104b1565b005b348015610157575f5ffd5b506101606104c4565b60405161016d9190610bdf565b60405180910390f35b348015610181575f5ffd5b5061018a6104eb565b6040516101979190610c29565b60405180910390f35b3480156101ab575f5ffd5b506101c660048036038101906101c19190610c42565b610510565b005b3480156101d3575f5ffd5b506101ee60048036038101906101e99190610aec565b6105ba565b005b5f3411610232576040517f08c379a000000000000000000000000000000000000000000000000000000000815260040161022990610cc7565b60405180910390fd5b60015f8381526020019081526020015f2060405180608001604052803481526020018360ff1681526020013373ffffffffffffffffffffffffffffffffffffffff1681526020015f1515815250908060018154018082558091505060019003905f5260205f2090600202015f909190919091505f820151815f01556020820151816001015f6101000a81548160ff021916908360ff16021790555060408201518160010160016101000a81548173ffffffffffffffffffffffffffffffffffffffff021916908373ffffffffffffffffffffffffffffffffffffffff16021790555060608201518160010160156101000a81548160ff02191690831515021790555050503373ffffffffffffffffffffffffffffffffffffffff16827fe90186097616cbeb30ffc786b44501e1362f5e0a316a96c5ab82a0551f9d2f05348460405161037f929190610ce5565b60405180910390a35050565b60025f9054906101000a900473ffffffffffffffffffffffffffffffffffffffff1681565b6103b861063e565b8060035f6101000a81548173ffffffffffffffffffffffffffffffffffffffff021916908373ffffffffffffffffffffffffffffffffffffffff1602179055507f5e4ea73e0fc8d80174ff780d83f59a90071b0a2d93c0b800c5b4077092bbcc7f816040516104279190610bdf565b60405180910390a150565b6001602052815f5260405f20818154811061044b575f80fd5b905f5260205f2090600202015f9150915050805f015490806001015f9054906101000a900460ff16908060010160019054906101000a900473ffffffffffffffffffffffffffffffffffffffff16908060010160159054906101000a900460ff16905084565b6104b961063e565b6104c25f6106c5565b565b5f5f5f9054906101000a900473ffffffffffffffffffffffffffffffffffffffff16905090565b60035f9054906101000a900473ffffffffffffffffffffffffffffffffffffffff1681565b5f60035f9054906101000a900473ffffffffffffffffffffffffffffffffffffffff1673ffffffffffffffffffffffffffffffffffffffff1663995e4339836040518263ffffffff1660e01b815260040161056b9190610d0c565b602060405180830381865afa158015610586573d5f5f3e3d5ffd5b505050506040513d601f19601f820116820180604052508101906105aa9190610d39565b90506105b68282610786565b5050565b6105c261063e565b5f73ffffffffffffffffffffffffffffffffffffffff168173ffffffffffffffffffffffffffffffffffffffff1603610632575f6040517f1e4fbdf70000000000000000000000000000000000000000000000000000000081526004016106299190610bdf565b60405180910390fd5b61063b816106c5565b50565b61064661096c565b73ffffffffffffffffffffffffffffffffffffffff166106646104c4565b73ffffffffffffffffffffffffffffffffffffffff16146106c35761068761096c565b6040517f118cdaa70000000000000000000000000000000000000000000000000000000081526004016106ba9190610bdf565b60405180910390fd5b565b5f5f5f9054906101000a900473ffffffffffffffffffffffffffffffffffffffff169050815f5f6101000a81548173ffffffffffffffffffffffffffffffffffffffff021916908373ffffffffffffffffffffffffffffffffffffffff1602179055508173ffffffffffffffffffffffffffffffffffffffff168173ffffffffffffffffffffffffffffffffffffffff167f8be0079c531659141344cd1fd0a4f28419497f9722a3daafe3b4186f6b6457e060405160405180910390a35050565b5f60015f8481526020019081526020015f2090505f5f90505b8180549050811015610966575f8282815481106107bf576107be610d64565b5b905f5260205f20906002020190508060010160159054906101000a900460ff1615801561080157508360ff16816001015f9054906101000a900460ff1660ff16145b15610958575f6002825f01546108179190610dbe565b905060025f9054906101000a900473ffffffffffffffffffffffffffffffffffffffff1673ffffffffffffffffffffffffffffffffffffffff1663117de2fd8360010160019054906101000a900473ffffffffffffffffffffffffffffffffffffffff16836040518363ffffffff1660e01b8152600401610899929190610dff565b5f604051808303815f87803b1580156108b0575f5ffd5b505af11580156108c2573d5f5f3e3d5ffd5b5050505060018260010160156101000a81548160ff0219169083151502179055508160010160019054906101000a900473ffffffffffffffffffffffffffffffffffffffff1673ffffffffffffffffffffffffffffffffffffffff16867f5f7341a552ae2d452b071917104c05fbac3663936a69be768a05c40605056e7d8360405161094e9190610d0c565b60405180910390a3505b50808060010191505061079f565b50505050565b5f33905090565b5f5ffd5b5f819050919050565b61098981610977565b8114610993575f5ffd5b50565b5f813590506109a481610980565b92915050565b5f60ff82169050919050565b6109bf816109aa565b81146109c9575f5ffd5b50565b5f813590506109da816109b6565b92915050565b5f5f604083850312156109f6576109f5610973565b5b5f610a0385828601610996565b9250506020610a14858286016109cc565b9150509250929050565b5f73ffffffffffffffffffffffffffffffffffffffff82169050919050565b5f819050919050565b5f610a60610a5b610a5684610a1e565b610a3d565b610a1e565b9050919050565b5f610a7182610a46565b9050919050565b5f610a8282610a67565b9050919050565b610a9281610a78565b82525050565b5f602082019050610aab5f830184610a89565b92915050565b5f610abb82610a1e565b9050919050565b610acb81610ab1565b8114610ad5575f5ffd5b50565b5f81359050610ae681610ac2565b92915050565b5f60208284031215610b0157610b00610973565b5b5f610b0e84828501610ad8565b91505092915050565b5f5f60408385031215610b2d57610b2c610973565b5b5f610b3a85828601610996565b9250506020610b4b85828601610996565b9150509250929050565b610b5e81610977565b82525050565b610b6d816109aa565b82525050565b610b7c81610ab1565b82525050565b5f8115159050919050565b610b9681610b82565b82525050565b5f608082019050610baf5f830187610b55565b610bbc6020830186610b64565b610bc96040830185610b73565b610bd66060830184610b8d565b95945050505050565b5f602082019050610bf25f830184610b73565b92915050565b5f610c0282610a46565b9050919050565b5f610c1382610bf8565b9050919050565b610c2381610c09565b82525050565b5f602082019050610c3c5f830184610c1a565b92915050565b5f60208284031215610c5757610c56610973565b5b5f610c6484828501610996565b91505092915050565b5f82825260208201905092915050565b7f416d6f756e74206d757374206265203e203000000000000000000000000000005f82015250565b5f610cb1601283610c6d565b9150610cbc82610c7d565b602082019050919050565b5f6020820190508181035f830152610cde81610ca5565b9050919050565b5f604082019050610cf85f830185610b55565b610d056020830184610b64565b9392505050565b5f602082019050610d1f5f830184610b55565b92915050565b5f81519050610d33816109b6565b92915050565b5f60208284031215610d4e57610d4d610973565b5b5f610d5b84828501610d25565b91505092915050565b7f4e487b71000000000000000000000000000000000000000000000000000000005f52603260045260245ffd5b7f4e487b71000000000000000000000000000000000000000000000000000000005f52601160045260245ffd5b5f610dc882610977565b9150610dd383610977565b9250828202610de181610977565b91508282048414831517610df857610df7610d91565b5b5092915050565b5f604082019050610e125f830185610b73565b610e1f6020830184610b55565b939250505056fea2646970667358221220102cb7093ed6a4f8fc27b567d84a08702a110199e7b2d1d15a08c8bd89ee8c4864736f6c634300081c0033",
  "linkReferences": {},
  "deployedLinkReferences": {},
  "immutableReferences": {},
  "inputSourceName": "project/contracts/PredictionMarket.sol",
  "buildInfoId": "solc-0_8_28-7b2059115b286f006eb98fa3ec6285624138d6f9"
}