{
  "_format": "hh3-artifact-1",
  "contractName": "PredictionMarket",
  "sourceName": "contracts/PredictionMarket.sol",
  "abi": [
    {
      "inputs": [
        {
          "internalType": "address",
          "name": "_pool",
          "type": "address"
        }
      ],
      "stateMutability": "nonpayable",
      "type": "constructor"
    },
    {
      "inputs": [
        {
          "internalType": "address",
          "name": "owner",
          "type": "address"
        }
      ],
      "name": "OwnableInvalidOwner",
      "type": "error"
    },
    {
      "inputs": [
        {
          "internalType": "address",
          "name": "account",
          "type": "address"
        }
      ],
      "name": "OwnableUnauthorizedAccount",
      "type": "error"
    },
    {
      "anonymous": false,
      "inputs": [
        {
          "indexed": true,
          "internalType": "uint256",
          "name": "eventId",
          "type": "uint256"
        },
        {
          "indexed": true,
          "internalType": "address",
          "name": "bettor",
          "type": "address"
        },
        {
          "indexed": false,
          "internalType": "uint256",
          "name": "amount",
          "type": "uint256"
        },
        {
          "indexed": false,
          "internalType": "uint8",
          "name": "outcome",
          "type": "uint8"
        }
      ],
      "name": "BetPlaced",
      "type": "event"
    },
    {
      "anonymous": false,
      "inputs": [
        {
          "indexed": true,
          "internalType": "address",
          "name": "previousOwner",
          "type": "address"
        },
        {
          "indexed": true,
          "internalType": "address",
          "name": "newOwner",
          "type": "address"
        }
      ],
      "name": "OwnershipTransferred",
      "type": "event"
    },
    {
      "anonymous": false,
      "inputs": [
        {
          "indexed": true,
          "internalType": "uint256",
          "name": "eventId",
          "type": "uint256"
        },
        {
          "indexed": true,
          "internalType": "address",
          "name": "bettor",
          "type": "address"
        },
        {
          "indexed": false,
          "internalType": "uint256",
          "name": "amount",
          "type": "uint256"
        }
      ],
      "name": "Payout",
      "type": "event"
    },
    {
      "inputs": [
        {
          "internalType": "uint256",
          "name": "",
          "type": "uint256"
        },
        {
          "internalType": "uint256",
          "name": "",
          "type": "uint256"
        }
      ],
      "name": "bets",
      "outputs": [
        {
          "internalType": "uint256",
          "name": "amount",
          "type": "uint256"
        },
        {
          "internalType": "uint8",
          "name": "outcome",
          "type": "uint8"
        },
        {
          "internalType": "address",
          "name": "bettor",
          "type": "address"
        }
      ],
      "stateMutability": "view",
      "type": "function"
    },
    {
      "inputs": [],
      "name": "owner",
      "outputs": [
        {
          "internalType": "address",
          "name": "",
          "type": "address"
        }
      ],
      "stateMutability": "view",
      "type": "function"
    },
    {
      "inputs": [
        {
          "internalType": "uint256",
          "name": "eventId",
          "type": "uint256"
        },
        {
          "internalType": "uint8",
          "name": "winningOutcome",
          "type": "uint8"
        }
      ],
      "name": "payout",
      "outputs": [],
      "stateMutability": "nonpayable",
      "type": "function"
    },
    {
      "inputs": [
        {
          "internalType": "uint256",
          "name": "eventId",
          "type": "uint256"
        },
        {
          "internalType": "uint8",
          "name": "outcome",
          "type": "uint8"
        }
      ],
      "name": "placeBet",
      "outputs": [],
      "stateMutability": "payable",
      "type": "function"
    },
    {
      "inputs": [],
      "name": "pool",
      "outputs": [
        {
          "internalType": "contract LiquidityPool",
          "name": "",
          "type": "address"
        }
      ],
      "stateMutability": "view",
      "type": "function"
    },
    {
      "inputs": [],
      "name": "renounceOwnership",
      "outputs": [],
      "stateMutability": "nonpayable",
      "type": "function"
    },
    {
      "inputs": [
        {
          "internalType": "address",
          "name": "newOwner",
          "type": "address"
        }
      ],
      "name": "transferOwnership",
      "outputs": [],
      "stateMutability": "nonpayable",
      "type": "function"
    }
  ],
  "bytecode": "0x608060405234801561000f575f5ffd5b50604051610e95380380610e9583398181016040528101906100319190610217565b335f73ffffffffffffffffffffffffffffffffffffffff168173ffffffffffffffffffffffffffffffffffffffff16036100a2575f6040517f1e4fbdf70000000000000000000000000000000000000000000000000000000081526004016100999190610251565b60405180910390fd5b6100b1816100f860201b60201c565b508060025f6101000a81548173ffffffffffffffffffffffffffffffffffffffff021916908373ffffffffffffffffffffffffffffffffffffffff1602179055505061026a565b5f5f5f9054906101000a900473ffffffffffffffffffffffffffffffffffffffff169050815f5f6101000a81548173ffffffffffffffffffffffffffffffffffffffff021916908373ffffffffffffffffffffffffffffffffffffffff1602179055508173ffffffffffffffffffffffffffffffffffffffff168173ffffffffffffffffffffffffffffffffffffffff167f8be0079c531659141344cd1fd0a4f28419497f9722a3daafe3b4186f6b6457e060405160405180910390a35050565b5f5ffd5b5f73ffffffffffffffffffffffffffffffffffffffff82169050919050565b5f6101e6826101bd565b9050919050565b6101f6816101dc565b8114610200575f5ffd5b50565b5f81519050610211816101ed565b92915050565b5f6020828403121561022c5761022b6101b9565b5b5f61023984828501610203565b91505092915050565b61024b816101dc565b82525050565b5f6020820190506102645f830184610242565b92915050565b610c1e806102775f395ff3fe60806040526004361061006f575f3560e01c80636a09f6be1161004d5780636a09f6be146100e1578063715018a61461011f5780638da5cb5b14610135578063f2fde38b1461015f5761006f565b806303edf9141461007357806316f0115b1461008f5780633935f7bf146100b9575b5f5ffd5b61008d6004803603810190610088919061087e565b610187565b005b34801561009a575f5ffd5b506100a36102fa565b6040516100b09190610936565b60405180910390f35b3480156100c4575f5ffd5b506100df60048036038101906100da919061087e565b61031f565b005b3480156100ec575f5ffd5b506101076004803603810190610102919061094f565b610598565b604051610116939291906109cb565b60405180910390f35b34801561012a575f5ffd5b50610133610604565b005b348015610140575f5ffd5b50610149610617565b6040516101569190610a00565b60405180910390f35b34801561016a575f5ffd5b5061018560048036038101906101809190610a43565b61063e565b005b5f34116101c9576040517f08c379a00000000000000000000000000000000000000000000000000000000081526004016101c090610ac8565b60405180910390fd5b60015f8381526020019081526020015f2060405180606001604052803481526020018360ff1681526020013373ffffffffffffffffffffffffffffffffffffffff16815250908060018154018082558091505060019003905f5260205f2090600202015f909190919091505f820151815f01556020820151816001015f6101000a81548160ff021916908360ff16021790555060408201518160010160016101000a81548173ffffffffffffffffffffffffffffffffffffffff021916908373ffffffffffffffffffffffffffffffffffffffff16021790555050503373ffffffffffffffffffffffffffffffffffffffff16827fe90186097616cbeb30ffc786b44501e1362f5e0a316a96c5ab82a0551f9d2f0534846040516102ee929190610ae6565b60405180910390a35050565b60025f9054906101000a900473ffffffffffffffffffffffffffffffffffffffff1681565b6103276106c2565b5f60015f8481526020019081526020015f20805480602002602001604051908101604052809291908181526020015f905b82821015610403578382905f5260205f2090600202016040518060600160405290815f8201548152602001600182015f9054906101000a900460ff1660ff1660ff1681526020016001820160019054906101000a900473ffffffffffffffffffffffffffffffffffffffff1673ffffffffffffffffffffffffffffffffffffffff1673ffffffffffffffffffffffffffffffffffffffff168152505081526020019060010190610358565b5050505090505f5f90505b8151811015610592578260ff1682828151811061042e5761042d610b0d565b5b60200260200101516020015160ff1603610585575f600283838151811061045857610457610b0d565b5b60200260200101515f015161046d9190610b67565b905060025f9054906101000a900473ffffffffffffffffffffffffffffffffffffffff1673ffffffffffffffffffffffffffffffffffffffff1663a9059cbb8484815181106104bf576104be610b0d565b5b602002602001015160400151836040518363ffffffff1660e01b81526004016104e9929190610ba8565b5f604051808303815f87803b158015610500575f5ffd5b505af1158015610512573d5f5f3e3d5ffd5b5050505082828151811061052957610528610b0d565b5b60200260200101516040015173ffffffffffffffffffffffffffffffffffffffff16857f5f7341a552ae2d452b071917104c05fbac3663936a69be768a05c40605056e7d8360405161057b9190610bcf565b60405180910390a3505b808060010191505061040e565b50505050565b6001602052815f5260405f2081815481106105b1575f80fd5b905f5260205f2090600202015f9150915050805f015490806001015f9054906101000a900460ff16908060010160019054906101000a900473ffffffffffffffffffffffffffffffffffffffff16905083565b61060c6106c2565b6106155f610749565b565b5f5f5f9054906101000a900473ffffffffffffffffffffffffffffffffffffffff16905090565b6106466106c2565b5f73ffffffffffffffffffffffffffffffffffffffff168173ffffffffffffffffffffffffffffffffffffffff16036106b6575f6040517f1e4fbdf70000000000000000000000000000000000000000000000000000000081526004016106ad9190610a00565b60405180910390fd5b6106bf81610749565b50565b6106ca61080a565b73ffffffffffffffffffffffffffffffffffffffff166106e8610617565b73ffffffffffffffffffffffffffffffffffffffff16146107475761070b61080a565b6040517f118cdaa700000000000000000000000000000000000000000000000000000000815260040161073e9190610a00565b60405180910390fd5b565b5f5f5f9054906101000a900473ffffffffffffffffffffffffffffffffffffffff169050815f5f6101000a81548173ffffffffffffffffffffffffffffffffffffffff021916908373ffffffffffffffffffffffffffffffffffffffff1602179055508173ffffffffffffffffffffffffffffffffffffffff168173ffffffffffffffffffffffffffffffffffffffff167f8be0079c531659141344cd1fd0a4f28419497f9722a3daafe3b4186f6b6457e060405160405180910390a35050565b5f33905090565b5f5ffd5b5f819050919050565b61082781610815565b8114610831575f5ffd5b50565b5f813590506108428161081e565b92915050565b5f60ff82169050919050565b61085d81610848565b8114610867575f5ffd5b50565b5f8135905061087881610854565b92915050565b5f5f6040838503121561089457610893610811565b5b5f6108a185828601610834565b92505060206108b28582860161086a565b9150509250929050565b5f73ffffffffffffffffffffffffffffffffffffffff82169050919050565b5f819050919050565b5f6108fe6108f96108f4846108bc565b6108db565b6108bc565b9050919050565b5f61090f826108e4565b9050919050565b5f61092082610905565b9050919050565b61093081610916565b82525050565b5f6020820190506109495f830184610927565b92915050565b5f5f6040838503121561096557610964610811565b5b5f61097285828601610834565b925050602061098385828601610834565b9150509250929050565b61099681610815565b82525050565b6109a581610848565b82525050565b5f6109b5826108bc565b9050919050565b6109c5816109ab565b82525050565b5f6060820190506109de5f83018661098d565b6109eb602083018561099c565b6109f860408301846109bc565b949350505050565b5f602082019050610a135f8301846109bc565b92915050565b610a22816109ab565b8114610a2c575f5ffd5b50565b5f81359050610a3d81610a19565b92915050565b5f60208284031215610a5857610a57610811565b5b5f610a6584828501610a2f565b91505092915050565b5f82825260208201905092915050565b7f416d6f756e74206d757374206265203e203000000000000000000000000000005f82015250565b5f610ab2601283610a6e565b9150610abd82610a7e565b602082019050919050565b5f6020820190508181035f830152610adf81610aa6565b9050919050565b5f604082019050610af95f83018561098d565b610b06602083018461099c565b9392505050565b7f4e487b71000000000000000000000000000000000000000000000000000000005f52603260045260245ffd5b7f4e487b71000000000000000000000000000000000000000000000000000000005f52601160045260245ffd5b5f610b7182610815565b9150610b7c83610815565b9250828202610b8a81610815565b91508282048414831517610ba157610ba0610b3a565b5b5092915050565b5f604082019050610bbb5f8301856109bc565b610bc8602083018461098d565b9392505050565b5f602082019050610be25f83018461098d565b9291505056fea2646970667358221220d043d6d215e62f924cea37102fab1676ba2c739bb87bf81a940090b69160e1e664736f6c634300081c0033",
  "linkReferences": {},
  "deployedLinkReferences": {},
  "immutableReferences": {},
  "inputSourceName": "project/contracts/PredictionMarket.sol",
  "buildInfoId": "solc-0_8_28-b38350c44c8a8e976eb390974c098b070ff7871c"
}