{
  "_format": "hh3-artifact-1",
  "contractName": "PredictionMarket",
  "sourceName": "contracts/PredictionMarket.sol",
  "abi": [
    {
      "inputs": [
        {
          "internalType": "address",
          "name": "_pool",
          "type": "address"
        }
      ],
      "stateMutability": "nonpayable",
      "type": "constructor"
    },
    {
      "inputs": [
        {
          "internalType": "address",
          "name": "owner",
          "type": "address"
        }
      ],
      "name": "OwnableInvalidOwner",
      "type": "error"
    },
    {
      "inputs": [
        {
          "internalType": "address",
          "name": "account",
          "type": "address"
        }
      ],
      "name": "OwnableUnauthorizedAccount",
      "type": "error"
    },
    {
      "anonymous": false,
      "inputs": [
        {
          "indexed": true,
          "internalType": "uint256",
          "name": "eventId",
          "type": "uint256"
        },
        {
          "indexed": true,
          "internalType": "address",
          "name": "bettor",
          "type": "address"
        },
        {
          "indexed": false,
          "internalType": "uint256",
          "name": "amount",
          "type": "uint256"
        },
        {
          "indexed": false,
          "internalType": "uint8",
          "name": "outcome",
          "type": "uint8"
        }
      ],
      "name": "BetPlaced",
      "type": "event"
    },
    {
      "anonymous": false,
      "inputs": [
        {
          "indexed": false,
          "internalType": "address",
          "name": "oracle",
          "type": "address"
        }
      ],
      "name": "OracleSet",
      "type": "event"
    },
    {
      "anonymous": false,
      "inputs": [
        {
          "indexed": true,
          "internalType": "address",
          "name": "previousOwner",
          "type": "address"
        },
        {
          "indexed": true,
          "internalType": "address",
          "name": "newOwner",
          "type": "address"
        }
      ],
      "name": "OwnershipTransferred",
      "type": "event"
    },
    {
      "anonymous": false,
      "inputs": [
        {
          "indexed": true,
          "internalType": "uint256",
          "name": "eventId",
          "type": "uint256"
        },
        {
          "indexed": true,
          "internalType": "address",
          "name": "bettor",
          "type": "address"
        },
        {
          "indexed": false,
          "internalType": "uint256",
          "name": "amount",
          "type": "uint256"
        }
      ],
      "name": "Payout",
      "type": "event"
    },
    {
      "inputs": [
        {
          "internalType": "uint256",
          "name": "",
          "type": "uint256"
        },
        {
          "internalType": "uint256",
          "name": "",
          "type": "uint256"
        }
      ],
      "name": "bets",
      "outputs": [
        {
          "internalType": "uint256",
          "name": "amount",
          "type": "uint256"
        },
        {
          "internalType": "uint8",
          "name": "outcome",
          "type": "uint8"
        },
        {
          "internalType": "address",
          "name": "bettor",
          "type": "address"
        },
        {
          "internalType": "bool",
          "name": "paid",
          "type": "bool"
        }
      ],
      "stateMutability": "view",
      "type": "function"
    },
    {
      "inputs": [],
      "name": "oracle",
      "outputs": [
        {
          "internalType": "address",
          "name": "",
          "type": "address"
        }
      ],
      "stateMutability": "view",
      "type": "function"
    },
    {
      "inputs": [],
      "name": "owner",
      "outputs": [
        {
          "internalType": "address",
          "name": "",
          "type": "address"
        }
      ],
      "stateMutability": "view",
      "type": "function"
    },
    {
      "inputs": [
        {
          "internalType": "uint256",
          "name": "eventId",
          "type": "uint256"
        },
        {
          "internalType": "uint8",
          "name": "outcome",
          "type": "uint8"
        }
      ],
      "name": "placeBet",
      "outputs": [],
      "stateMutability": "payable",
      "type": "function"
    },
    {
      "inputs": [],
      "name": "pool",
      "outputs": [
        {
          "internalType": "contract LiquidityPool",
          "name": "",
          "type": "address"
        }
      ],
      "stateMutability": "view",
      "type": "function"
    },
    {
      "inputs": [],
      "name": "renounceOwnership",
      "outputs": [],
      "stateMutability": "nonpayable",
      "type": "function"
    },
    {
      "inputs": [
        {
          "internalType": "address",
          "name": "_oracle",
          "type": "address"
        }
      ],
      "name": "setOracle",
      "outputs": [],
      "stateMutability": "nonpayable",
      "type": "function"
    },
    {
      "inputs": [
        {
          "internalType": "uint256",
          "name": "eventId",
          "type": "uint256"
        },
        {
          "internalType": "uint8",
          "name": "winningOutcome",
          "type": "uint8"
        }
      ],
      "name": "setWinningOutcome",
      "outputs": [],
      "stateMutability": "nonpayable",
      "type": "function"
    },
    {
      "inputs": [
        {
          "internalType": "address",
          "name": "newOwner",
          "type": "address"
        }
      ],
      "name": "transferOwnership",
      "outputs": [],
      "stateMutability": "nonpayable",
      "type": "function"
    }
  ],
  "bytecode": "0x608060405234801561000f575f5ffd5b5060405161106c38038061106c83398181016040528101906100319190610217565b335f73ffffffffffffffffffffffffffffffffffffffff168173ffffffffffffffffffffffffffffffffffffffff16036100a2575f6040517f1e4fbdf70000000000000000000000000000000000000000000000000000000081526004016100999190610251565b60405180910390fd5b6100b1816100f860201b60201c565b508060025f6101000a81548173ffffffffffffffffffffffffffffffffffffffff021916908373ffffffffffffffffffffffffffffffffffffffff1602179055505061026a565b5f5f5f9054906101000a900473ffffffffffffffffffffffffffffffffffffffff169050815f5f6101000a81548173ffffffffffffffffffffffffffffffffffffffff021916908373ffffffffffffffffffffffffffffffffffffffff1602179055508173ffffffffffffffffffffffffffffffffffffffff168173ffffffffffffffffffffffffffffffffffffffff167f8be0079c531659141344cd1fd0a4f28419497f9722a3daafe3b4186f6b6457e060405160405180910390a35050565b5f5ffd5b5f73ffffffffffffffffffffffffffffffffffffffff82169050919050565b5f6101e6826101bd565b9050919050565b6101f6816101dc565b8114610200575f5ffd5b50565b5f81519050610211816101ed565b92915050565b5f6020828403121561022c5761022b6101b9565b5b5f61023984828501610203565b91505092915050565b61024b816101dc565b82525050565b5f6020820190506102645f830184610242565b92915050565b610df5806102775f395ff3fe608060405260043610610085575f3560e01c80637adbf973116100585780637adbf973146101245780637dc0d1d01461014c5780638da5cb5b14610176578063b574c4c8146101a0578063f2fde38b146101c857610085565b806303edf9141461008957806316f0115b146100a55780636a09f6be146100cf578063715018a61461010e575b5f5ffd5b6100a3600480360381019061009e91906109c5565b6101f0565b005b3480156100b0575f5ffd5b506100b961038b565b6040516100c69190610a7d565b60405180910390f35b3480156100da575f5ffd5b506100f560048036038101906100f09190610a96565b6103b0565b6040516101059493929190610b2c565b60405180910390f35b348015610119575f5ffd5b5061012261042f565b005b34801561012f575f5ffd5b5061014a60048036038101906101459190610b99565b610442565b005b348015610157575f5ffd5b506101606104c4565b60405161016d9190610bc4565b60405180910390f35b348015610181575f5ffd5b5061018a6104e9565b6040516101979190610bc4565b60405180910390f35b3480156101ab575f5ffd5b506101c660048036038101906101c191906109c5565b610510565b005b3480156101d3575f5ffd5b506101ee60048036038101906101e99190610b99565b610785565b005b5f3411610232576040517f08c379a000000000000000000000000000000000000000000000000000000000815260040161022990610c37565b60405180910390fd5b60015f8381526020019081526020015f2060405180608001604052803481526020018360ff1681526020013373ffffffffffffffffffffffffffffffffffffffff1681526020015f1515815250908060018154018082558091505060019003905f5260205f2090600202015f909190919091505f820151815f01556020820151816001015f6101000a81548160ff021916908360ff16021790555060408201518160010160016101000a81548173ffffffffffffffffffffffffffffffffffffffff021916908373ffffffffffffffffffffffffffffffffffffffff16021790555060608201518160010160156101000a81548160ff02191690831515021790555050503373ffffffffffffffffffffffffffffffffffffffff16827fe90186097616cbeb30ffc786b44501e1362f5e0a316a96c5ab82a0551f9d2f05348460405161037f929190610c55565b60405180910390a35050565b60025f9054906101000a900473ffffffffffffffffffffffffffffffffffffffff1681565b6001602052815f5260405f2081815481106103c9575f80fd5b905f5260205f2090600202015f9150915050805f015490806001015f9054906101000a900460ff16908060010160019054906101000a900473ffffffffffffffffffffffffffffffffffffffff16908060010160159054906101000a900460ff16905084565b610437610809565b6104405f610890565b565b61044a610809565b8060035f6101000a81548173ffffffffffffffffffffffffffffffffffffffff021916908373ffffffffffffffffffffffffffffffffffffffff1602179055507f3f32684a32a11dabdbb8c0177de80aa3ae36a004d75210335b49e544e48cd0aa816040516104b99190610bc4565b60405180910390a150565b60035f9054906101000a900473ffffffffffffffffffffffffffffffffffffffff1681565b5f5f5f9054906101000a900473ffffffffffffffffffffffffffffffffffffffff16905090565b60035f9054906101000a900473ffffffffffffffffffffffffffffffffffffffff1673ffffffffffffffffffffffffffffffffffffffff163373ffffffffffffffffffffffffffffffffffffffff161461059f576040517f08c379a000000000000000000000000000000000000000000000000000000000815260040161059690610cc6565b60405180910390fd5b5f60015f8481526020019081526020015f2090505f5f90505b818054905081101561077f575f8282815481106105d8576105d7610ce4565b5b905f5260205f20906002020190508060010160159054906101000a900460ff1615801561061a57508360ff16816001015f9054906101000a900460ff1660ff16145b15610771575f6002825f01546106309190610d3e565b905060025f9054906101000a900473ffffffffffffffffffffffffffffffffffffffff1673ffffffffffffffffffffffffffffffffffffffff1663a9059cbb8360010160019054906101000a900473ffffffffffffffffffffffffffffffffffffffff16836040518363ffffffff1660e01b81526004016106b2929190610d7f565b5f604051808303815f87803b1580156106c9575f5ffd5b505af11580156106db573d5f5f3e3d5ffd5b5050505060018260010160156101000a81548160ff0219169083151502179055508160010160019054906101000a900473ffffffffffffffffffffffffffffffffffffffff1673ffffffffffffffffffffffffffffffffffffffff16867f5f7341a552ae2d452b071917104c05fbac3663936a69be768a05c40605056e7d836040516107679190610da6565b60405180910390a3505b5080806001019150506105b8565b50505050565b61078d610809565b5f73ffffffffffffffffffffffffffffffffffffffff168173ffffffffffffffffffffffffffffffffffffffff16036107fd575f6040517f1e4fbdf70000000000000000000000000000000000000000000000000000000081526004016107f49190610bc4565b60405180910390fd5b61080681610890565b50565b610811610951565b73ffffffffffffffffffffffffffffffffffffffff1661082f6104e9565b73ffffffffffffffffffffffffffffffffffffffff161461088e57610852610951565b6040517f118cdaa70000000000000000000000000000000000000000000000000000000081526004016108859190610bc4565b60405180910390fd5b565b5f5f5f9054906101000a900473ffffffffffffffffffffffffffffffffffffffff169050815f5f6101000a81548173ffffffffffffffffffffffffffffffffffffffff021916908373ffffffffffffffffffffffffffffffffffffffff1602179055508173ffffffffffffffffffffffffffffffffffffffff168173ffffffffffffffffffffffffffffffffffffffff167f8be0079c531659141344cd1fd0a4f28419497f9722a3daafe3b4186f6b6457e060405160405180910390a35050565b5f33905090565b5f5ffd5b5f819050919050565b61096e8161095c565b8114610978575f5ffd5b50565b5f8135905061098981610965565b92915050565b5f60ff82169050919050565b6109a48161098f565b81146109ae575f5ffd5b50565b5f813590506109bf8161099b565b92915050565b5f5f604083850312156109db576109da610958565b5b5f6109e88582860161097b565b92505060206109f9858286016109b1565b9150509250929050565b5f73ffffffffffffffffffffffffffffffffffffffff82169050919050565b5f819050919050565b5f610a45610a40610a3b84610a03565b610a22565b610a03565b9050919050565b5f610a5682610a2b565b9050919050565b5f610a6782610a4c565b9050919050565b610a7781610a5d565b82525050565b5f602082019050610a905f830184610a6e565b92915050565b5f5f60408385031215610aac57610aab610958565b5b5f610ab98582860161097b565b9250506020610aca8582860161097b565b9150509250929050565b610add8161095c565b82525050565b610aec8161098f565b82525050565b5f610afc82610a03565b9050919050565b610b0c81610af2565b82525050565b5f8115159050919050565b610b2681610b12565b82525050565b5f608082019050610b3f5f830187610ad4565b610b4c6020830186610ae3565b610b596040830185610b03565b610b666060830184610b1d565b95945050505050565b610b7881610af2565b8114610b82575f5ffd5b50565b5f81359050610b9381610b6f565b92915050565b5f60208284031215610bae57610bad610958565b5b5f610bbb84828501610b85565b91505092915050565b5f602082019050610bd75f830184610b03565b92915050565b5f82825260208201905092915050565b7f416d6f756e74206d757374206265203e203000000000000000000000000000005f82015250565b5f610c21601283610bdd565b9150610c2c82610bed565b602082019050919050565b5f6020820190508181035f830152610c4e81610c15565b9050919050565b5f604082019050610c685f830185610ad4565b610c756020830184610ae3565b9392505050565b7f4e6f7420617574686f72697a65640000000000000000000000000000000000005f82015250565b5f610cb0600e83610bdd565b9150610cbb82610c7c565b602082019050919050565b5f6020820190508181035f830152610cdd81610ca4565b9050919050565b7f4e487b71000000000000000000000000000000000000000000000000000000005f52603260045260245ffd5b7f4e487b71000000000000000000000000000000000000000000000000000000005f52601160045260245ffd5b5f610d488261095c565b9150610d538361095c565b9250828202610d618161095c565b91508282048414831517610d7857610d77610d11565b5b5092915050565b5f604082019050610d925f830185610b03565b610d9f6020830184610ad4565b9392505050565b5f602082019050610db95f830184610ad4565b9291505056fea26469706673582212205918883762ee9ace079088f238d95e098f9a244f0ab4faf9ea787f1add4b24fa64736f6c634300081c0033",
  "linkReferences": {},
  "deployedLinkReferences": {},
  "immutableReferences": {},
  "inputSourceName": "project/contracts/PredictionMarket.sol",
  "buildInfoId": "solc-0_8_28-22f72aeab1e05e24e093677b015633f355c38aed"
}