{
  "_format": "hh3-artifact-1",
  "contractName": "SportsOracle",
  "sourceName": "contracts/SportsOracle.sol",
  "abi": [
    {
      "inputs": [],
      "stateMutability": "nonpayable",
      "type": "constructor"
    },
    {
      "inputs": [
        {
          "internalType": "address",
          "name": "owner",
          "type": "address"
        }
      ],
      "name": "OwnableInvalidOwner",
      "type": "error"
    },
    {
      "inputs": [
        {
          "internalType": "address",
          "name": "account",
          "type": "address"
        }
      ],
      "name": "OwnableUnauthorizedAccount",
      "type": "error"
    },
    {
      "anonymous": false,
      "inputs": [
        {
          "indexed": true,
          "internalType": "address",
          "name": "previousOwner",
          "type": "address"
        },
        {
          "indexed": true,
          "internalType": "address",
          "name": "newOwner",
          "type": "address"
        }
      ],
      "name": "OwnershipTransferred",
      "type": "event"
    },
    {
      "anonymous": false,
      "inputs": [
        {
          "indexed": true,
          "internalType": "uint256",
          "name": "eventId",
          "type": "uint256"
        },
        {
          "indexed": false,
          "internalType": "uint8",
          "name": "outcome",
          "type": "uint8"
        }
      ],
      "name": "ResultUpdated",
      "type": "event"
    },
    {
      "inputs": [
        {
          "internalType": "uint256",
          "name": "eventId",
          "type": "uint256"
        }
      ],
      "name": "getResult",
      "outputs": [
        {
          "internalType": "uint8",
          "name": "",
          "type": "uint8"
        }
      ],
      "stateMutability": "view",
      "type": "function"
    },
    {
      "inputs": [],
      "name": "owner",
      "outputs": [
        {
          "internalType": "address",
          "name": "",
          "type": "address"
        }
      ],
      "stateMutability": "view",
      "type": "function"
    },
    {
      "inputs": [],
      "name": "renounceOwnership",
      "outputs": [],
      "stateMutability": "nonpayable",
      "type": "function"
    },
    {
      "inputs": [
        {
          "internalType": "uint256",
          "name": "",
          "type": "uint256"
        }
      ],
      "name": "resolved",
      "outputs": [
        {
          "internalType": "bool",
          "name": "",
          "type": "bool"
        }
      ],
      "stateMutability": "view",
      "type": "function"
    },
    {
      "inputs": [
        {
          "internalType": "uint256",
          "name": "eventId",
          "type": "uint256"
        },
        {
          "internalType": "uint8",
          "name": "outcome",
          "type": "uint8"
        }
      ],
      "name": "setResultFromApi",
      "outputs": [],
      "stateMutability": "nonpayable",
      "type": "function"
    },
    {
      "inputs": [
        {
          "internalType": "address",
          "name": "newOwner",
          "type": "address"
        }
      ],
      "name": "transferOwnership",
      "outputs": [],
      "stateMutability": "nonpayable",
      "type": "function"
    }
  ],
  "bytecode": "0x608060405234801561000f575f5ffd5b50335f73ffffffffffffffffffffffffffffffffffffffff168173ffffffffffffffffffffffffffffffffffffffff1603610081575f6040517f1e4fbdf70000000000000000000000000000000000000000000000000000000081526004016100789190610196565b60405180910390fd5b6100908161009660201b60201c565b506101af565b5f5f5f9054906101000a900473ffffffffffffffffffffffffffffffffffffffff169050815f5f6101000a81548173ffffffffffffffffffffffffffffffffffffffff021916908373ffffffffffffffffffffffffffffffffffffffff1602179055508173ffffffffffffffffffffffffffffffffffffffff168173ffffffffffffffffffffffffffffffffffffffff167f8be0079c531659141344cd1fd0a4f28419497f9722a3daafe3b4186f6b6457e060405160405180910390a35050565b5f73ffffffffffffffffffffffffffffffffffffffff82169050919050565b5f61018082610157565b9050919050565b61019081610176565b82525050565b5f6020820190506101a95f830184610187565b92915050565b610867806101bc5f395ff3fe608060405234801561000f575f5ffd5b5060043610610060575f3560e01c8063715018a6146100645780638da5cb5b1461006e578063995e43391461008c578063b9b7efb6146100bc578063e046cb28146100ec578063f2fde38b14610108575b5f5ffd5b61006c610124565b005b610076610137565b604051610083919061054a565b60405180910390f35b6100a660048036038101906100a1919061059a565b61015e565b6040516100b391906105e0565b60405180910390f35b6100d660048036038101906100d1919061059a565b6101e1565b6040516100e39190610613565b60405180910390f35b61010660048036038101906101019190610656565b6101fe565b005b610122600480360381019061011d91906106be565b610338565b005b61012c6103bc565b6101355f610443565b565b5f5f5f9054906101000a900473ffffffffffffffffffffffffffffffffffffffff16905090565b5f60015f8381526020019081526020015f205f9054906101000a900460ff166101bc576040517f08c379a00000000000000000000000000000000000000000000000000000000081526004016101b390610743565b60405180910390fd5b60025f8381526020019081526020015f205f9054906101000a900460ff169050919050565b6001602052805f5260405f205f915054906101000a900460ff1681565b6102066103bc565b60015f8381526020019081526020015f205f9054906101000a900460ff1615610264576040517f08c379a000000000000000000000000000000000000000000000000000000000815260040161025b906107ab565b60405180910390fd5b60028160ff1611156102ab576040517f08c379a00000000000000000000000000000000000000000000000000000000081526004016102a290610813565b60405180910390fd5b8060025f8481526020019081526020015f205f6101000a81548160ff021916908360ff1602179055506001805f8481526020019081526020015f205f6101000a81548160ff021916908315150217905550817f7300a9c89d4dac3d7abb82dffef514d7f7879b0d080dff7015f7677da4571c6e8260405161032c91906105e0565b60405180910390a25050565b6103406103bc565b5f73ffffffffffffffffffffffffffffffffffffffff168173ffffffffffffffffffffffffffffffffffffffff16036103b0575f6040517f1e4fbdf70000000000000000000000000000000000000000000000000000000081526004016103a7919061054a565b60405180910390fd5b6103b981610443565b50565b6103c4610504565b73ffffffffffffffffffffffffffffffffffffffff166103e2610137565b73ffffffffffffffffffffffffffffffffffffffff161461044157610405610504565b6040517f118cdaa7000000000000000000000000000000000000000000000000000000008152600401610438919061054a565b60405180910390fd5b565b5f5f5f9054906101000a900473ffffffffffffffffffffffffffffffffffffffff169050815f5f6101000a81548173ffffffffffffffffffffffffffffffffffffffff021916908373ffffffffffffffffffffffffffffffffffffffff1602179055508173ffffffffffffffffffffffffffffffffffffffff168173ffffffffffffffffffffffffffffffffffffffff167f8be0079c531659141344cd1fd0a4f28419497f9722a3daafe3b4186f6b6457e060405160405180910390a35050565b5f33905090565b5f73ffffffffffffffffffffffffffffffffffffffff82169050919050565b5f6105348261050b565b9050919050565b6105448161052a565b82525050565b5f60208201905061055d5f83018461053b565b92915050565b5f5ffd5b5f819050919050565b61057981610567565b8114610583575f5ffd5b50565b5f8135905061059481610570565b92915050565b5f602082840312156105af576105ae610563565b5b5f6105bc84828501610586565b91505092915050565b5f60ff82169050919050565b6105da816105c5565b82525050565b5f6020820190506105f35f8301846105d1565b92915050565b5f8115159050919050565b61060d816105f9565b82525050565b5f6020820190506106265f830184610604565b92915050565b610635816105c5565b811461063f575f5ffd5b50565b5f813590506106508161062c565b92915050565b5f5f6040838503121561066c5761066b610563565b5b5f61067985828601610586565b925050602061068a85828601610642565b9150509250929050565b61069d8161052a565b81146106a7575f5ffd5b50565b5f813590506106b881610694565b92915050565b5f602082840312156106d3576106d2610563565b5b5f6106e0848285016106aa565b91505092915050565b5f82825260208201905092915050565b7f526573756c74206e6f74207365742079657400000000000000000000000000005f82015250565b5f61072d6012836106e9565b9150610738826106f9565b602082019050919050565b5f6020820190508181035f83015261075a81610721565b9050919050565b7f416c7265616479207265736f6c766564000000000000000000000000000000005f82015250565b5f6107956010836106e9565b91506107a082610761565b602082019050919050565b5f6020820190508181035f8301526107c281610789565b9050919050565b7f496e76616c6964206f7574636f6d6500000000000000000000000000000000005f82015250565b5f6107fd600f836106e9565b9150610808826107c9565b602082019050919050565b5f6020820190508181035f83015261082a816107f1565b905091905056fea2646970667358221220b59aad441b1be3054d863bf8cdcb908800907c4aaec80b4cc716609abee3ccc864736f6c634300081c0033",
  "linkReferences": {},
  "deployedLinkReferences": {},
  "immutableReferences": {},
  "inputSourceName": "project/contracts/SportsOracle.sol",
  "buildInfoId": "solc-0_8_28-7b2059115b286f006eb98fa3ec6285624138d6f9"
}